:020000040800F2
:10000000D81E0020B1010008D514000839140008DA
:10001000D11400082B080008691B0008000000002C
:100020000000000000000000000000007919000836
:10003000091100080000000071150008651A000889
:10004000CB010008CB010008CB010008CB01000860
:10005000CB010008CB010008CB010008CB01000850
:10006000CB010008CB010008CB010008CB01000840
:10007000CB010008CB010008CB010008CB01000830
:10008000CB010008CB010008CB010008F91A0008D9
:10009000191B0008CB010008CB010008CB010008A8
:1000A000CB010008CB010008CB010008CB01000800
:1000B000CB010008CB010008CB010008CB010008F0
:1000C000CB010008CB010008CB010008CB010008E0
:1000D000CB010008CB010008CB010008CB010008D0
:1000E000CB010008CB010008CB01000800F002F8AA
:1000F00000F03EF80AA090E8000C82448344AAF184
:100100000107DA4501D100F033F8AFF2090EBAE881
:100110000F0013F0010F18BFFB1A43F0010318473B
:10012000641A0000841A0000103A24BF78C878C10D
:10013000FAD8520724BF30C830C144BF04680C60ED
:10014000704700000023002400250026103A28BF35
:1001500078C1FBD8520728BF30C148BF0B60704739
:100160001FB59DE8030000F0FDF81FBD10B510BDE0
:1001700000F086F91146FFF7F3FF01F0F7FC00F0FD
:10018000A4F903B4FFF7F2FF03BC00F0D1F90000BB
:10019000EFF30980704780F309887047EFF3088018
:1001A000704780F30888704740BA7047C0BA7047FC
:1001B0000948804709480047FEE7FEE7FEE7FEE7FB
:1001C000FEE7FEE7FEE7FEE7FEE7FEE70448054937
:1001D000054A064B70470000951A0008ED0000081C
:1001E000D8040020D81E0020D8140020D8140020E5
:1001F00070B5064600F09AF8056806F10B0020F08D
:100200000704B4429CBF002070BD2B466A68BAB197
:100210001068A04210D304F1080188423CBF506826
:10022000586007D35168101941601168091B0160BB
:1002300058601460101D70BD13465268002AE7D143
:100240002146284600F07AF80028DED170BD70B54E
:100250000446051F00F06AF80068002C14BF4468CB
:1002600070BD002C18BFAC423CBF20466468F8D378
:1002700001680A18AA4218BF456003D12A680546DA
:100280001144016028684119A1421CBF6C6070BD17
:100290006168696021680844286070BD032A40F2E3
:1002A000308010F0030C00F0158011F8013BBCF118
:1002B000020F624498BF11F801CB00F8013B38BF30
:1002C00011F8013BA2F1040298BF00F801CB38BF3E
:1002D00000F8013B11F0030300F07A80083AC0F007
:1002E000088051F8043B083A51F804CBA0E8081004
:1002F000F5E7121D5CBF51F8043B40F8043BAFF337
:100300000080D20724BF11F8013B11F801CB48BF90
:1003100011F8012B24BF00F8013B00F801CB48BFC6
:1003200000F8012B704770477047704700487047CE
:1003300080040020704770477047704738B5044606
:100340000A4600206946AFF30080002808BF38BD88
:1003500002460099204600F071F8012038BD0120C6
:1003600000F086B8F8B5AFF30080054600200C46D3
:10037000102000BF0646A819A0420DD93246694692
:100380000020AFF30080070008BF00F071F800986C
:10039000A04218BF0546C419FFF7C8FF056007460D
:1003A000F01D20F007004619284600F00AF8B44274
:1003B00008BFF8BDA21B31463868BDE8F84000F020
:1003C0003DB800210160C0E901107047102070475E
:1003D00010B5203AC0F00B80B1E81850203AA0E8E0
:1003E0001850B1E81850A0E81850BFF4F5AF5FEA14
:1003F000027C24BFB1E81850A0E8185044BF18C9C7
:1004000018C0BDE810405FEA827C24BF51F8043B6D
:1004100040F8043B08BF7047D20728BF31F8023BC1
:1004200048BF11F8012B28BF20F8023B48BF00F855
:10043000012B70470048704778040020034640684D
:100440008C46002818BF88423CBF03464068F8D35A
:1004500018681844884207D00CF1030020F0070008
:10046000001D411A521A0146081D0A60FFF7EFBE2F
:1004700010B500F035F8BDE8104000F02CB870471A
:100480007546FFF7D7FFAE4605006946534620F094
:100490000700854618B020B5FFF798FEBDE820405C
:1004A0004FF000064FF000074FF000084FF0000B30
:1004B00021F00701AC46ACE8C009ACE8C009ACE8E3
:1004C000C009ACE8C0098D4670470446AFF3008010
:1004D0002046FFF756FE002801D000F029B87047EB
:1004E00010B5012805D0002103A000F027F8012055
:1004F00010BD09A1F8E7000053494752544D454D3E
:100500003A204F7574206F662068656170206D65B4
:100510006D6F7279000000003A2048656170206DAF
:10052000656D6F727920636F7272757074656400A7
:1005300001491820ABBEFEE72600020070B5054653
:100540000C460A2000E06D1C00F011F835B1287847
:100550000028F8D102E0641C00F009F814B12078FA
:100560000028F8D1BDE870400A20AFF3008008B53C
:1005700069468DF800000320ABBE08BD30B589B0D8
:1005800005460C460121042001F0E6F94FF4006015
:10059000ADF8040048208DF8070003208DF8060010
:1005A00001A94C4800F072FE4FF48050ADF80400F1
:1005B00018208DF8070003208DF8060001A9454892
:1005C00000F064FE0121480601F0A6F9284600F07B
:1005D0008FF90021404800F07FF906A800F018FCD0
:1005E00000208DF81E0001208DF81F0000208DF8DE
:1005F00020008DF821008DF8220001208DF82300C5
:1006000000208DF81A004CF2503084420CD10020AA
:100610008DF81B000C208DF81C0001208DF81D00AA
:100620002D20ADF818000BE000208DF81B000C20E9
:100630008DF81C0001208DF81D002D20ADF818004C
:1006400006A9284600F099FA00208DF812008DF8CE
:10065000130001208DF814000020ADF80800ADF85B
:100660000A00ADF80C00ADF80E00ADF81000012046
:100670008DF8150002A800F063F901220F21284629
:1006800000F072FA4FF4407000F05EFF14208DF815
:10069000000006208DF8010000208DF802000120E6
:1006A0008DF80300684600F017FF4FF4407000F02B
:1006B0004BFF13208DF8000006208DF8010000206C
:1006C0008DF8020001208DF80300684600F004FF59
:1006D00009B030BD000801400064004070B5044618
:1006E0000425342000F012FD204600F015FD0546DB
:1006F000284670BD10B5044600F08EFD2046FFF779
:10070000EDFF204600F0A8FD00F046FD10BD000002
:1007100008B50121084601F01FF91148406820F092
:1007200020000F49486001210E4800F03BFE0121E6
:10073000042001F011F94FF400410B4800F07AFE5B
:100740004FF40040ADF8000003208DF802000420B3
:100750008DF803006946044800F098FD08BD0000CC
:10076000002004E0000230000008014010B572B61D
:100770004FF00061084600F0F1FEFFF7C9FF00F0FE
:1007800005F800F03FF862B610BD000030B51A4819
:1007900000684FF47A72B0FBF2F1B1F1807F01D3BF
:1007A00001201DE021F07F40401E4FF0E02250610B
:1007B00050170F22002807DA13071D0E0F4B00F009
:1007C0000F04241F1D5503E013071C0E0C4B1C5473
:1007D00000BF00204FF0E022906107201061002050
:1007E00008B100BFFEE74FF0E020006940F00100D3
:1007F0004FF0E021086130BD0000002018ED00E05E
:1008000000E400E010B545F2555000F033FE40F62C
:10081000FF7000F029FE032000F020FE00F00EFE25
:1008200010BD10B500F012FE10BD00BFFEE70000C5
:10083000B1F5007F3AD00FDC202928D006DC012951
:100840001CD004291DD0082940D11DE0402921D009
:10085000B1F5807F3AD126E0B1F5004F31D006DC0A
:10086000B1F5806F25D0B1F5006F2FD124E0B1F53F
:10087000803F12D0B1F5003F28D111E0154A8260C7
:1008800025E00822C26022E01022C2601FE0082298
:1008900002611CE01022026119E00822426016E0A9
:1008A0001022426013E00422426010E00422426001
:1008B0000DE0042242600AE00022826104224260CC
:1008C00005E0002282610422426000E000BF00BF18
:1008D000704700000101010021B1026842F480323A
:1008E000026003E0026822F4803202607047000078
:1008F00010B504460B48844209D10121480601F095
:100900001BF800214FF0007001F016F808E00121FB
:10091000880601F011F800214FF0806001F00CF81A
:1009200010BD00000064004021B9C26842F02002FE
:10093000C26003E0026942F02002026170470000D9
:1009400010B50021837A012202FA03F13D4A1268B0
:1009500042F001023B4B1A603A4A1C3212688A4349
:10096000384B1C331A60027BCAB9364A0C32126803
:100970008A43344B0C331A604288C38842EA0343EB
:10098000304A4032847A42F834300288838842EA1E
:1009900003432C4A4032847A02EBC4025360027B48
:1009A000012A19D1274A0C3212680A43254B0C330D
:1009B0001A604288038842EA0343224A4032847A1A
:1009C00042F83430C288838842EA03431D4A4032E9
:1009D000847A02EBC4025360C27A3AB9194A121DF2
:1009E00012688A43174B1B1D1A6006E0154A121D38
:1009F00012680A43134B1B1D1A60028932B9114A4F
:100A0000143212688A430F4B14331A600289012A88
:100A100006D10C4A143212680A430A4B14331A6086
:100A2000427B012A06D1074A1C3212680A43054B51
:100A30001C331A60034A126822F00102014B1A604B
:100A400010BD00000066004070B504460D4600264B
:100A500060692840002871D0B5F5807F5CD010DC3B
:100A6000082D35D006DC012D20D0022D24D0042DF8
:100A700072D127E0102D31D0202D35D0402D6BD1F3
:100A800038E0B5F5004F60D009DCB5F5007F49D0FE
:100A9000B5F5806F4CD0B5F5006F5DD14FE0B5F581
:100AA000803F2DD0B5F5003F56D12FE0A0682D49ED
:100AB00000F0FEFA064651E0E068032100F0F8FA83
:100AC00006464BE0E068082100F0F2FA064645E0F1
:100AD000E068102100F0ECFA06463FE020690321AF
:100AE00000F0E6FA064639E02069082100F0E0FA55
:100AF000064633E02069102100F0DAFA06462DE0C0
:100B00006068082100F0D4FA064627E060681021EA
:100B100000F0CEFA064621E0A069012100F0C8FAF3
:100B200006461BE0A069022100F0C2FA064615E065
:100B3000A069042100F0BCFA06460FE00FE0A069AE
:100B4000702100F0B5FA064608E06068042100F064
:100B5000AFFA064602E0FFE7002600BF00E00026ED
:100B6000304670BD010101001AB143690B43436176
:100B700002E043698B434361704730B50246002071
:100B80000023146824F002041460146844F0010483
:100B9000146000E05B1C546804F001041CB94FF6BB
:100BA000FF74A342F6D1546804F001040CB900208C
:100BB0006CE08C79012C04D1146844F0800414603A
:100BC00003E0146824F080041460CC79012C04D173
:100BD000146844F04004146003E0146824F04004F6
:100BE00014600C7A012C04D1146844F020041460C1
:100BF00003E0146824F0200414604C7A012C04D122
:100C0000146844F01004146003E0146824F0100425
:100C100014608C7A012C04D1146844F00804146028
:100C200003E0146824F008041460CC7A012C04D189
:100C3000146844F00404146003E0146824F004040D
:100C400014608C78A407CD7844EA05640D7944EAF1
:100C500005444D7944EA05540D886D1E2C43D4613A
:100C6000146824F001041460002300E05B1C546845
:100C700004F001041CB14FF6FF74A342F6D154688E
:100C800004F001040CB1002000E0012030BD38B5B3
:100C9000044614208DF8000006208DF80100002085
:100CA0008DF802008DF80340684600F015FC38BD51
:100CB00010B500F5D87303EB01131B6803F00403B0
:100CC0001372137A53B900F5D87303EB01131B6841
:100CD00040F2FF7404EA5353136009E000F5D8733F
:100CE00003EB01131B686FF0604404EAD303536005
:100CF00000F5D87303EB01131B6803F00203537272
:100D000000F5D87303EB01135B6803F00F039372D4
:100D100000F5D87303EB01135B681B0AD37400F56D
:100D2000D87303EB01139B68D37200F5D87303EB00
:100D300001139B681C0A147300F5D87303EB0113AD
:100D40009B681C0C547300F5D87303EB01139B686C
:100D50001B0E937300F5D87303EB0113DB68D37399
:100D600000F5D87303EB0113DB681C0A147400F55B
:100D7000D87303EB0113DB681C0C547400F5D873B3
:100D800003EB0113DB681B0E937421B9C36843F0B6
:100D90002003C36003E0036943F02003036110BD37
:100DA00070B5044600250948006808B9002070BDE8
:100DB0000020FFF76CFF05480168204600F032FD77
:100DC00005460120FFF763FF2846F0E734000020C6
:100DD00010B504460548006828B10448016820465B
:100DE00000F053FD10BD0020FCE70000340000209F
:100DF00010B50F21142000F078F904490860084666
:100E0000006808B1012010BD0020FCE7340000207C
:100E100000218171C171017241728172C172817050
:100E2000C1700321017102214171012101807047CC
:100E300001460022886800F0E052B2F1E05F01D183
:100E4000012070470020FCE710B50246002093689F
:100E500003F08063B3F1806F00D110E0936803F07A
:100E60000063B3F1006F01D1012008E0936803F043
:100E70008053B3F1805F01D1022000E004200428F8
:100E800074D002F5C07303EB00131B6803F0010478
:100E900002F5C07303EB00131C600B7A7BB94B7A2D
:100EA0000C8843EA445302F5C07404EB0014246830
:100EB000234302F5C07404EB0014236010E00B7AA6
:100EC0004C6843EAC4034C7A234302F5C07404EB34
:100ED00000142468234302F5C07404EB001423605B
:100EE0008B7A03F00F038B7202F5C07303EB0013D0
:100EF0005B6823F00F0402F5C07303EB00135C6022
:100F000002F5C07303EB00135B688C7A234302F590
:100F1000C07404EB001463608B7B1C064B7B44EABB
:100F200003440B7B44EA0323CC7A234302F5C074C9
:100F300004EB0014A3608B7C1C064B7C44EA034446
:100F40000B7C44EA0323CC7B234302F5C07404EBFF
:100F50000014E36002F5C07303EB00131B6843F059
:100F6000010402F5C07303EB00131C6010BD000008
:100F700001490871704700002C00002010B50121C4
:100F80000D48FFF761FD012815D100F019F801287F
:100F900009D00A4800F01CF801280CD1074906487E
:100FA000FFF752FF07E00448FFF742FF012802D194
:100FB0000020FFF7DDFF10BD00640040500400205A
:100FC00010B50249086800F01DFC10BD2C0000207F
:100FD00010B504460748006848B106480168204635
:100FE00000F020FC012800D110BD0020FCE700200B
:100FF000FAE700002C00002010B586B00446154822
:10100000006828B31349086800F003FC01281DD0CC
:101010001048007990B90F480168204600F035FC6F
:101020000C48016801A800F0FDFB01280BD109491B
:10103000087101A90848FFF707FF04E005480168A7
:10104000204600F022FC012006B010BD0020FBE786
:101050000020F9E72C0000200064004010B51921A1
:10106000142000F042F8044908600846006808B1FE
:10107000012010BD0020FCE72C00002010B54CF230
:1010800050310448FFF77AFAFFF7B2FEFFF7E6FFA8
:1010900010BD00000064004010B50448FFF780FE5A
:1010A00010B1024800F065FA10BD00006404002091
:1010B0000246002002EA01030BB1012000E00020FB
:1010C000704770B504460D461646324628462168DC
:1010D000FFF7E4F870BD70B504460D46164632467B
:1010E00021462868FFF7DAF870BD70B504460D4652
:1010F0001420FFF77DF8064626B12A4621463046E1
:1011000000F0BEF9304670BD704700000149C8606C
:10111000704700000020024030B5044604254FF41B
:10112000302000F085F80546042D17D10C480069E1
:1011300040F002000A49086108464461006940F035
:10114000400008614FF4302000F072F80546044872
:10115000006941F6FD71084001490861284630BD2B
:101160000020024004200B49C96801F0010109B1C7
:1011700001200EE00749C96801F0040109B102200D
:1011800007E00449C96801F0100109B1032000E03B
:1011900004207047002002400348006940F08000AE
:1011A00001490861704700000020024078B50646FA
:1011B0000C46042500200090E80200F039F80546AE
:1011C000042D24D11348006940F001001149086141
:1011D0003480E80200F02CF80546042D10D1B01C34
:1011E0000090200C00990880E80200F021F80546E4
:1011F0000848006941F6FE7108400649086106E0AA
:101200000448006941F6FE71084002490861284619
:1012100078BD0000002002400248034948600348AE
:10122000486070472301674500200240AB89EFCD3D
:1012300000B502460423FFF795FF034603E0FFF7DE
:1012400091FF0346521E012B01D1002AF7D102B9AA
:101250000523184600BD00002DE9F04105464FF476
:101260008074094F4FEA95284FEA882605E057F821
:10127000241006EB8400FFF799FF2000A4F101047D
:10128000F5D1BDE8F0810000500000202DE9F041CB
:10129000024600250026002000230024002791F8A4
:1012A00003C00CF00F0591F803C00CF0100CBCF15A
:1012B000000F03D091F802C04CEA050591F800C078
:1012C000BCF1000F31D0146800202BE04FF0010C6E
:1012D0000CFA00F3B1F800C00CEA03069E4220D1DC
:1012E00083004FF00F0C0CFA03F7BC4305FA03FC24
:1012F0004CEA040491F803C0BCF1280F06D14FF06A
:10130000010C0CFA00FCC2F814C00AE091F803C00A
:10131000BCF1480F05D14FF0010C0CFA00FCC2F8EB
:1013200010C0401C0828D1D31460B1F800C0BCF133
:10133000FF0F34DD546800202EE000F1080C4FF060
:10134000010808FA0CF3B1F800C00CEA03069E424B
:1013500021D183004FF00F0C0CFA03F7BC4305FAC0
:1013600003FC4CEA040491F803C0BCF1280F05D13A
:1013700000F1080C08FA0CF8C2F8148091F803C0C8
:10138000BCF1480F07D100F1080C4FF0010808FA32
:101390000CF8C2F81080401C0828CED35460BDE879
:1013A000F0810000F0B50A4600230024002100254A
:1013B00000F00046B6F1004F02D11D4EF16901E088
:1013C0001B4E7168C0F3034583B200F44016B6F5B6
:1013D000401F08D121F07061154E766826F07066C6
:1013E000134F7E6012E000F48016B6F5801F06D120
:1013F000032606FA05F4A14341F0706106E0460DAC
:10140000360103FA06F6B14341F0706122B1460D90
:10141000360103FA06F6314300F00046B6F1004FFC
:1014200002D1034EF16101E0014E7160F0BD000098
:10143000000001404161704700BFFEE74CF6CC4020
:101440000149086070470000003000404AF6AA20B9
:1014500001490860704700000030004001494860C1
:10146000704700000030004001498860704700006C
:101470000030004001490860704700000030004023
:1014800000230374436003600372C160427201234E
:101490000374704738B50446206807490840B0F126
:1014A000005F06D160680090009D2068FEF779FE1D
:1014B000A847012038BD00000000FE2F10B54FF4F2
:1014C00000410248FFF7B6FF10BD000000100140C8
:1014D00000BFFEE77047000070B5002100230F2217
:1014E000C47804B3154C246804F4E064C4F5E064E3
:1014F000210AC1F10403CA40447804FA03F1847854
:101500001440214309010E4C0678A155047804F0DB
:101510001F050124AC4005786D11AD0005F1E025F3
:10152000C5F8004109E0047804F01F050124AC402F
:10153000044D0678761145F8264070BD0CED00E0AC
:1015400000E400E080E100E002490143024A11604A
:10155000704700000000FA050CED00E0024A0A4066
:101560000243024B1A60704780FFFF1F08ED00E046
:1015700070477FB505460024287A042832D1687A5E
:1015800078BB6C6804F07F008DF80400E40904F077
:101590000F008DF80300240904F07F008DF802008D
:1015A000E40904F00F008DF80100240904F07F0025
:1015B0008DF80000A87A8DF80500002607E005F1F7
:1015C0000B00815D0DF106008155701CC6B29DF8BF
:1015D0000500B042F3DC684600F05AF8012004B080
:1015E00070BDFFE70020FAE770B586B0054600241D
:1015F000E40128780443240168780443E401A878CE
:1016000004432401E8780443E40128790443029464
:1016100004208DF80C0000208DF80D0068798DF8FD
:101620000E00002606E0A81D815D0DF10F0081551A
:10163000701CC6B26879B042F5DC01A8FFF7DCFC8B
:10164000002006B070BD000010B50E48B0F90000D3
:1016500000280DDA0C480078012809D0FFF72EFF8A
:101660000A48FFF717FF4FF4FA600649088062B690
:1016700005480078012803D14FF4FA600149088039
:1016800010BD0000180000201A00002000400008D3
:10169000F8B5044660780C2801D00020F8BD4FF45E
:1016A000FA604E490880E078052872D2DFE800F041
:1016B000030D224A8000A07849490870002049495A
:1016C00008600120484908707BE0A0798DF803008C
:1016D000E0798DF80200207A8DF80100607A8DF8AB
:1016E00000004249009808600020414908704149C3
:1016F000088066E040484149086008460168207952
:1017000001EBC0003D490860A61D002511E03078BE
:101710003849098808443749088016F8010B3749C9
:101720000968087035480068401C34490860681C26
:1017300085B2082DEBDB2E480078401C2C49087040
:101740000120ABE72A48007808B90020A6E7617AB3
:10175000207A01EB002085B226480088854219D105
:10176000E07923490978884214D1204800681D494E
:10177000096888420CD91D4800682149884207D36E
:101780001A4800681749086008460068FEF7B2FF6B
:1017900017E014E0012060711148007820700020EB
:1017A000A070EE20A0712046FFF71EFF002075E715
:1017B00064200A49088002200B49087001E00020DB
:1017C0006CE700BF002060710548007820700020A1
:1017D000A0702046FFF708FF01205FE718000020F7
:1017E0001B000020280000201A00002020000020FC
:1017F0002400002026000020500000201C000020B3
:10180000004000080146087A08B90120704700200E
:10181000FCE70146087A4A7A904201DB01207047D2
:101820000020FCE770B506460C46207C01282AD132
:10183000002020742046FFF7E5FF18B10120207436
:10184000002070BD3146E2686068FFF73AFC6568C9
:101850006068406860602868FEF7F9FC0020286036
:101860002846FEF7F4FC0025606810B1002061688E
:101870008860207A401E2072207A08B900202060FB
:1018800001202074DDE70020DBE72DE9F041074669
:101890000C4600260025207C01283AD10020207427
:1018A0002046FFF7B6FF20B1012020740020BDE8DC
:1018B000F081E068FEF79CFC06461EB9012020740A
:1018C0000020F4E70C20FEF793FC054635B93046BE
:1018D000FEF7BDFC012020740020E8E72E602946B9
:1018E0003846E268FFF7F7FB002068602046FFF704
:1018F00089FF18B165600020A86003E0206845609A
:101900002068A8602560207A401C20720120207485
:10191000CDE70020CBE7000029B1064AD269024397
:10192000044BDA6104E0034AD2698243014BDA6175
:10193000704700000010024029B1064A12690243B4
:10194000044B1A6104E0034A12698243014B1A6195
:10195000704700000010024029B1064A9269024314
:10196000044B9A6104E0034A92698243014B9A61F5
:101970007047000000100240704710B500F002F8F8
:1019800010BD00000CB500200190009033480068A5
:1019900040F480303149086000BF3048006800F4EE
:1019A000003000900198401C0190009818B90198EF
:1019B000B0F5A06FF1D12948006800F4003010B1F3
:1019C0000120009001E0002000900098012843D100
:1019D0002348006840F0100021490860084600686C
:1019E00020F0030008600846006840F0020008602C
:1019F0001A484068194948600846406848600846E7
:101A0000406840F4806048600846406820F47C10DC
:101A100048600846406840F4E8104860084600689E
:101A200040F08070086000BF0C48006800F0007053
:101A30000028F9D00948406820F0030007494860B1
:101A40000846406840F00200486000BF0348406814
:101A500000F00C000828F9D10CBD00000010024075
:101A60000020024008480068401C074908600749F8
:101A7000884202D300200449086005480088401EBF
:101A800000B20349088070471400002040420F0054
:101A90001800002010B5FEF73BFE1348006840F028
:101AA00001001149086008464068104908400E4985
:101AB0004860084600680E4908400B49086008461F
:101AC000006820F4802008600846406820F4FE008A
:101AD00048604FF41F008860FFF74FFF4FF0006031
:101AE0000449086010BD0000001002400000FFF82B
:101AF000FFFFF6FE08ED00E010B501210548FEF7F6
:101B0000A3FF012805D1FFF739FA01210148FEF7AB
:101B10008FFE10BD0064004010B502211048FEF792
:101B200093FF01280BD004210D48FEF78DFF0128FB
:101B300005D008210A48FEF787FF01280FD1094A7E
:101B400000210748FFF7B4F80648FFF741F90021E4
:101B50000348FEF7E9FE02210148FEF769FE10BDC9
:101B6000006400403C00002000BFFEE7FEF7FEFDE1
:101B7000FFF784FA05E0FFF78FFAFFF765FDFEF740
:101B800050FEF8E7A41B0008000000203C00000005
:101B900028010008E01B00083C0000209C1E0000FB
:101BA0004401000800A24A040000000000000000F8
:101BB000010203040607080900000000D007007FA7
:101BC0000000000000000000000000000000000015
:101BD0000000000000000000000000000000000005
:04000005080000ED02
:00000001FF
