:020000040800F2
:10400000C833002021410008BD6C00080168000889
:10401000B96C00089B510008DD9100080000000009
:104020000000000000000000000000001D830008E8
:10403000DD62000800000000E16F000891890008BF
:104040003B4100083B4100083B4100083B41000860
:104050003B4100083B4100083B4100083B41000850
:104060003B4100083B4100083B4100083B41000840
:104070003B4100083B4100083B4100083B41000830
:104080003B4100083B4100083B4100086D9100089E
:104090008D9100083B4100083B4100083B4100086E
:1040A0003B4100083B4100083B4100083B41000800
:1040B0003B4100083B410008C58A00083B4100081D
:1040C0003B4100083B4100083B4100083B410008E0
:1040D0003B4100083B4100083B4100083B410008D0
:1040E0006D6400083B4100083B410008DFF80CD03C
:1040F00000F04CF80048004745A10008C8330020F4
:10410000EFF30980704780F309887047EFF3088068
:10411000704780F30888704740BA7047C0BA70474C
:104120000648804706480047FEE7FEE7FEE7FEE751
:10413000FEE7FEE7FEE7FEE7FEE7FEE7058A00088A
:10414000ED40000840EA01039B0703D009E008C9DD
:10415000121F08C0042AFAD203E011F8013B00F84C
:10416000013B521EF9D27047D2B201E000F8012B98
:10417000491EFBD270470022F6E710B513460A46E7
:1041800004461946FFF7F0FF204610BD064C074DC8
:1041900006E0E06840F0010394E807009847103417
:1041A000AC42F6D3FFF7A6FF9CA30008BCA300080F
:1041B00000B587B001214FF4017003F0B9FF102062
:1041C000ADF8180000208DF81B0006A91D4802F06C
:1041D000F3F90020019001208DF808008DF8090006
:1041E0004FF4602003900020049001208DF814000B
:1041F00001A9154800F0A6F8052301220421124860
:1042000000F0C8F80121104800F079F801210E48AB
:1042100000F06AF80C4800F019F900BF0A4800F0F5
:1042200087F80028FAD1084800F020F900BF0648B6
:1042300000F070F80028FAD10121034800F00BF9D2
:1042400007B000BD000801400024014000B587B060
:10425000012140F2044003F06BFF2020ADF818006C
:1042600000208DF81B0006A91D4802F0A5F90020CA
:10427000019001208DF808008DF809004FF46020AE
:1042800003900020049001208DF8140001A9154826
:1042900000F058F8052301221946124800F07AF878
:1042A0000121104800F02BF801210E4800F01CF805
:1042B0000C4800F0CBF800BF0A4800F039F800289D
:1042C000FAD1084800F0D2F800BF064800F022F802
:1042D0000028FAD10121034800F0BDF807B000BD65
:1042E000000801400028014021B1826842F001022B
:1042F000826003E0826822F001028260704721B18F
:10430000826842F48072826003E0826822F48072E4
:1043100082607047014600208A6802F004020AB1F8
:10432000012000E0002070470146C86C80B2704751
:10433000014600208A6802F008020AB1012000E06C
:104340000020704730B502460020002350680F4C13
:1043500020400D790C6844EA0524204350609068A1
:104360000B4C2040D1E902542C434D7944EA4504DA
:1043700020439060D06A20F470000C7C641EE4B28C
:10438000234340EA0350D06230BD0000FFFEF0FF3F
:10439000FDF7F1FFF0B504460D4600200021092D80
:1043A00011DDE068A5F10A0606EB4607072606FAC6
:1043B00007F18843A5F10A0606EB460603FA06F163
:1043C0000843E0600CE0206905EB4507072606FA84
:1043D00007F1884305EB450603FA06F1084320611F
:1043E000072A0FDA606B561E06EB86071F2606FAB1
:1043F00007F18843561E06EB860605FA06F10843C8
:10440000606322E00D2A0FDA206BD61F06EB8607C9
:104410001F2606FA07F18843D61F06EB860605FA23
:1044200006F10843206310E0E06AA2F10D0606EBF6
:1044300086071F2606FA07F18843A2F10D0606EB50
:10444000860605FA06F10843E062F0BD816841F096
:1044500008018160704721B1826842F4A002826045
:1044600003E0826822F4A00282607047816841F014
:10447000040181607047000070B51348FFF754FFD6
:104480001249134A127821F8120011480078401C92
:10449000C0B20F4908700A2801DB0020087000250F
:1044A000002405E0094830F814000544601CC4B23B
:1044B0000A2CF7DB0A20B5FBF0F006490880012141
:1044C0000148FFF7C8FF70BD0024014074020020BE
:1044D0008C0000208E00002008B50121082003F088
:1044E00027FE4FF400701349086003208DF8020086
:1044F00010208DF803004001ADF8000069460D481A
:10450000143802F059F80121082003F011FE4FF48D
:1045100080700849086003208DF8020010208DF893
:1045200003000001ADF8000069460248143802F0AB
:1045300043F808BD140C014010B504463CB1092CE9
:1045400000DD0924E01D0222012100F06BF810BDFE
:104550003249097811B13149898831B94FF4007174
:104560002F4A11604910116070472C494978C1B930
:104570002A49898800294FDD28490989491C89B2BF
:10458000264A11815288914246DB4FF40071244A39
:104590001160491011600021204A118101215170E0
:1045A0003AE01E494978012936D11C490989491C3C
:1045B00089B21A4A11819288914222DB1749C9882F
:1045C000002912DD15494989491C89B2134A5181D4
:1045D000D288914202DB0021104A11700F490978FC
:1045E00019B900210D4A9180BEE700210B4A1181C3
:1045F00051704FF400710A4A121F11604910116086
:104600000AE04FF40071064A116049101160002160
:10461000024A11810121517000BFA5E73801002035
:10462000140C014010B500B910BD094B5880998099
:10463000DA800023064C2381638163700123237099
:104640005B02044C23605B10236000BFECE70000BA
:1046500038010020100C014001490860704700003B
:1046600000860D422DE9F04104460D46164600F045
:10467000F2FBA02000F0CCFB00F014FC201200F0B4
:10468000C7FB00F00FFC2746E11704EB116109128C
:10469000A4EB0121C8B200F0BBFB00F003FC00F06A
:1046A000DAFBA12000F0B4FB00F0FCFB00BF012E00
:1046B00005DD012000F088FB28706D1C03E0002060
:1046C00000F082FB2870701E86B2002EEFDC00F036
:1046D000D4FBBDE8F0812DE9F04104460D461746B4
:1046E00000F0B9FBA02000F093FB00F0DBFB2012F0
:1046F00000F08EFB00F0D6FB2646E11704EB1161BB
:104700000912A4EB0121C8B200F082FB00F0CAFB41
:1047100005E0287800F07CFB6D1C00F0C3FB381E20
:10472000A7F101018FB2F4DC00F0A7FBBDE8F08136
:104730002DE9F05F05460F4614462846E91705EBBC
:104740005161C911A5EBC11101F0FF0ACAF1800046
:10475000C6B22046E11704EB5161C1F3C718E11757
:1047600004EB5161C911A4EBC11101F0FF09BAF1C9
:10477000000F23D1B8F1000F05D122463946284653
:10478000FFF7A9FF74E00CE0802239462846FFF7C6
:10479000A2FF05F1800085B2803740F6B83005F001
:1047A00043F95FEA0800A8F1010101F0FF08EBD12D
:1047B0004A4639462846FFF78EFF59E0B8F1000F08
:1047C0001DD1B14515DDA9EB060000F0FF0B324607
:1047D00039462846FFF77FFFA81985B2374440F6CF
:1047E000B83005F021F95A4639462846FFF773FFDD
:1047F0003EE0224639462846FFF76DFF38E0A01B11
:1048000084B22046E11704EB5161C1F3C718E117E8
:1048100004EB5161C911A4EBC11101F0FF0932464B
:1048200039462846FFF757FFA81985B237440CE0F0
:1048300040F6B83005F0F8F8802239462846FFF7F0
:104840004AFF05F1800085B280375FEA0800A8F1D1
:10485000010101F0FF08EBD1B9F1000F08D040F6DB
:10486000B83005F0E1F84A4639462846FFF733FFED
:10487000BDE8F09F70B58AB005460C4600260121C0
:10488000042003F055FC4FF40060ADF80800482008
:104890008DF80B0003208DF80A0002A9714801F081
:1048A0008BFE4FF48050ADF8080018208DF80B00F7
:1048B00003208DF80A0002A96A4801F07DFE01215B
:1048C000480603F015FC284600F0CAFC00216648A3
:1048D00000F0BAFC07A800F0C5FF00208DF8220008
:1048E00001208DF8230000208DF824008DF825008C
:1048F0008DF8260001208DF8270000208DF81E007D
:104900004CF2503084420CD100208DF81F000C2056
:104910008DF8200001208DF821002D20ADF81C001D
:104920000BE000208DF81F000C208DF820000120E6
:104930008DF821002D20ADF81C0007A9284600F0B5
:10494000EEFD4A488089C0F3061600208DF8160057
:104950008DF8170001208DF818000020ADF80C002C
:10496000042000EBC610ADF80E000020ADF81000DA
:1049700043F68770ADF812000020ADF81400012056
:104980008DF8190003A800F087FC01208DF81600AF
:1049900000208DF8170001208DF818000020ADF8D8
:1049A0000C0043F6FC70ADF80E000020ADF81000CE
:1049B00043F68770ADF812000020ADF81400012016
:1049C0008DF8190003A800F067FC02208DF816008E
:1049D00000208DF8170001208DF818004FF41060AA
:1049E000ADF80C007C20ADF80E004FF68070ADF8ED
:1049F00010000720ADF812000020ADF814000120CF
:104A00008DF8190003A800F047FC01220F21284669
:104A100000F07CFD4FF4407002F09EF914208DF8F8
:104A2000040004208DF8050000208DF80600012008
:104A30008DF8070001A802F057F94FF4407002F01A
:104A40008BF913208DF8040006208DF80500002056
:104A50008DF8060001208DF8070001A802F044F946
:104A60000AB070BD0008014000640040200B002027
:104A70002DE9F04104460D461646274600F089FB15
:104A800072B60021074804F057F82A4639463046E6
:104A9000FFF7E8FD0121034804F04EF862B601205B
:104AA000BDE8F0810008004070B504460D4616468A
:104AB00000F06FFB2A4621463046FFF739FE012001
:104AC00070BD000008B55C48406820F020005A49DD
:104AD00048600121594801F0FBFD0121092003F044
:104AE00027FB4FF48050ADF8000003208DF8020042
:104AF00028208DF803006946514801F05DFD00BF94
:104B00004FF480514E4801F02BFE0128F8D002F0FE
:104B10004FF902F075F902F09DF94A480021018031
:104B200081700121092003F003FB4FF48040ADF8B0
:104B3000000003208DF8020010208DF80300694664
:104B40003F4801F039FD0121092003F0F1FA20204E
:104B5000ADF8000003208DF8020010208DF803004E
:104B60006946374801F028FD0121092003F0E0FAE9
:104B70004020ADF8000003208DF8020010208DF8D1
:104B8000030069462E4801F017FD0121092003F0BA
:104B9000CFFA8020ADF8000003208DF8020010202D
:104BA0008DF803006946264801F006FD0121092021
:104BB00003F0BEFA4FF48070ADF8000003208DF8CA
:104BC000020010208DF8030069461D4801F0F4FC36
:104BD0000121092003F0ACFA4FF40070ADF8000099
:104BE00003208DF8020010208DF803006946144858
:104BF00001F0E2FC0121092003F09AFA0220ADF84D
:104C0000000003208DF8020010208DF80300694693
:104C10000B4801F0D1FC0321002000F02DF8032106
:104C2000012000F029F80321022000F025F80720D8
:104C30000549087008BD0000002004E000023000B3
:104C4000000C01405F0000205C00002010B500F067
:104C50002FFA80B90221002000F00EF80221012075
:104C600000F00AF80221084600F006F872B604F0D7
:104C7000C5F900BFFEE710BD70B504460D46012D15
:104C80000FD124B1012C05D0022C09D105E002F08E
:104C900083F805E002F0A6F802E002F0CDF800BFCC
:104CA00021E0022D0FD124B1012C05D0022C09D115
:104CB00005E002F065F805E002F086F802E002F097
:104CC000ADF800BF0FE024B1012C05D0022C09D1B2
:104CD00005E002F06DF805E002F092F802E002F063
:104CE000B9F800BF00BF70BD04480068642804D84C
:104CF00002480068401C01490860704754000020C9
:104D000010B500F099FF03F0F7FA00F09FFF0220C2
:104D100004F08AFE03F028FE022004F085FE00F075
:104D20008BFF10BD08B50121082003F001FA4FF4F4
:104D30008060ADF8000010208DF8030003208DF88E
:104D400002006946164801F037FC0121082003F0F3
:104D5000EFF94FF40060ADF8000010208DF803006B
:104D600003208DF8020069460D4801F025FC012161
:104D7000082003F0DDF90420ADF8000010208DF8C4
:104D8000030003208DF802006946054801F014FC79
:104D900003F0EAFD03F0F2FD00F062FF08BD000041
:104DA000000C014010B500F047FF03F0A5FA03F036
:104DB000E5FD022004F038FE03F0D6FD022004F0E9
:104DC00033FE00F039FF10BD70B50546002403F036
:104DD00083FA002612E000F02FFF022004F024FEE8
:104DE00003F0C2FD6006040E03F0E2F908B1601C96
:104DF000C4B2022004F018FE701CC6B2082EEADB12
:104E000015B9FFF7CFFF01E0FFF77AFF204670BD2D
:104E100070B5044603F070FA00F00EFF002517E0AD
:104E2000E00910B103F0AAFD01E000F00FFF6006F9
:104E3000040E022004F0F8FD03F096FD022004F0B9
:104E4000F3FD00F0F9FE022004F0EEFD681CC5B28F
:104E5000082DE5DB70BD10B503F04EFA03F08EFDB2
:104E600003F082FD022004F0DFFD00F0EFFE0220DF
:104E700004F0DAFD00F0E0FE10BD10B503F03CFADE
:104E800000F0DAFE00F0E2FE022004F0CDFD03F0B7
:104E90006BFD03F073FD022004F0C6FD0A2004F050
:104EA000B7FD10BD10B5002403F016FA03F066FD3F
:104EB000022004F0B9FD03F057FD022004F0B4FD18
:104EC00007E0601CC4B2FA2C03DDFFF7D6FF012017
:104ED00010BD03F06DF90028F3D100F0ADFE002005
:104EE000F6E7000010B52B480068642851D32A4823
:104EF000007800284DD0002422E00120A04026495F
:104F000009780840D0B10120A04024490978084020
:104F1000A0B101212046FFF7AFFE0120A0402049AB
:104F2000097808431E4908700120A0401A490978F1
:104F300081431948017014201A490855601CC4B2F5
:104F4000032CDADB002422E00120A040124909787A
:104F50000840D0B10120A040104909780840A0B90C
:104F600002212046FFF788FE0120A0400C49097865
:104F700081430B4801700120A04007490978814313
:104F800005480170142007490855601CC4B2032C61
:104F9000DADB10BD540000205C0000205E00002021
:104FA0005D0000205F00002010B572B60B49480379
:104FB00001F0DCFEFFF786FD04F0B0F900F09AF88E
:104FC00000F0D4F8FFF7AEFE04F030FA00F008F875
:104FD000FFF782FA00F0CEF810BD00000040000894
:104FE00010B504F0EFF904F0B1F910BD30B50A4680
:104FF000032802DBFF2800D030BDFF282AD1012A78
:1050000003D1FF23274C237002E00023254C23709B
:1050100000211CE001238B40224C24781C400123FA
:105020008B40214D2D782B409C4207D001238B4093
:105030001E4C247823431D4C237006E001238B4033
:105040001A4C24789C43194B1C704B1CD9B2032971
:10505000E0DBD1E7012A07D101238340114C2478FA
:105060002343104C237006E0012383400D4C247829
:105070009C430C4B1C700B4B1B780B4C2478A342AD
:1050800007D001238340094C24782343074C237025
:1050900006E001238340054C24789C43034B1C709D
:1050A00000BFA9E75E0000205D0000205C0000203A
:1050B00010B54FF480510C4801F052FB01280DD17E
:1050C0000A480068401C094908600846006803282F
:1050D00007D3032006490860002010BD00200349C3
:1050E00008600120F9E70000000C01405800002092
:1050F0005400002030B51A4800684FF47A72B0FBB3
:10510000F2F1B1F1807F01D301201DE021F07F4059
:10511000401E4FF0E022506150170F22002807DA9E
:1051200013071D0E0F4B00F00F04241F1D5503E045
:1051300013071C0E0C4B1C5400BF00204FF0E02244
:10514000906107201061002008B100BFFEE74FF01A
:10515000E020006940F001004FF0E021086130BD1F
:105160004000002018ED00E000E400E010B503F07E
:10517000D5FC10BD10B545F2555001F05FFB40F66F
:10518000FF7001F055FB032001F04CFB01F03AFBEE
:1051900010BD10B501F03EFB10BD00BFFEE70000E2
:1051A000B1F5007F3AD00FDC202928D006DC012998
:1051B0001CD004291DD0082940D11DE0402921D050
:1051C000B1F5807F3AD126E0B1F5004F31D006DC51
:1051D000B1F5806F25D0B1F5006F2FD124E0B1F586
:1051E000803F12D0B1F5003F28D111E0154A82600E
:1051F00025E00822C26022E01022C2601FE00822DF
:1052000002611CE01022026119E00822426016E0EF
:105210001022426013E00422426010E00422426047
:105220000DE0042242600AE0002282610422426012
:1052300005E0002282610422426000E000BF00BF5E
:10524000704700000101010021B1026842F4803280
:10525000026003E0026822F48032026070470000BE
:1052600010B504460B48844209D10121480602F0DA
:105270004FFF00214FF0007002F04AFF08E00121CB
:10528000880602F045FF00214FF0806002F040FFE9
:1052900010BD00000064004010B50021837A012297
:1052A00002FA03F13D4A126842F001023B4B1A60D8
:1052B0003A4A1C3212688A43384B1C331A60027B0C
:1052C000CAB9364A0C3212688A43344B0C331A601E
:1052D0004288C38842EA0343304A4032847A42F823
:1052E00034300288838842EA03432C4A4032847A6D
:1052F00002EBC4025360027B012A19D1274A0C3207
:1053000012680A43254B0C331A604288038842EA2C
:105310000343224A4032847A42F83430C288838878
:1053200042EA03431D4A4032847A02EBC4025360CE
:10533000C27A3AB9194A121D12688A43174B1B1DCB
:105340001A6006E0154A121D12680A43134B1B1D12
:105350001A60028932B9114A143212688A430F4B1B
:1053600014331A600289012A06D10C4A14321268D9
:105370000A430A4B14331A60427B012A06D1074ABA
:105380001C3212680A43054B1C331A60034A126828
:1053900022F00102014B1A6010BD000000660040BF
:1053A0001FB5044604F07F0400208DF80A008DF834
:1053B0000B0001208DF80C000020ADF80000042047
:1053C00000EBC410ADF802000020ADF8040043F675
:1053D0008770ADF806000020ADF8080001208DF8B8
:1053E0000D006846FFF758FF1FBD000070B504466A
:1053F0000D46002660692840002871D0B5F5807FF1
:105400005CD010DC082D35D006DC012D20D0022D1B
:1054100024D0042D72D127E0102D31D0202D35D08D
:10542000402D6BD138E0B5F5004F60D009DCB5F503
:10543000007F49D0B5F5806F4CD0B5F5006F5DD1D8
:105440004FE0B5F5803F2DD0B5F5003F56D12FE0A8
:10545000A0682D4900F0BEFB064651E0E06803213C
:1054600000F0B8FB06464BE0E068082100F0B2FB14
:10547000064645E0E068102100F0ACFB06463FE040
:105480002069032100F0A6FB064639E020690821C7
:1054900000F0A0FB064633E02069102100F09AFBE3
:1054A00006462DE06068082100F094FB064627E0E0
:1054B0006068102100F08EFB064621E0A069012102
:1054C00000F088FB06461BE0A069022100F082FB89
:1054D000064615E0A069042100F07CFB06460FE0BB
:1054E0000FE0A069702100F075FB064608E06068D7
:1054F000042100F06FFB064602E0FFE7002600BF34
:1055000000E00026304670BD010101001AB1436978
:105510000B43436102E043698B434361704730B5FD
:10552000024600200023146824F00204146014686A
:1055300044F00104146000E05B1C546804F00104B2
:105540001CB94FF6FF74A342F6D1546804F001046D
:105550000CB900206CE08C79012C04D1146844F063
:105560008004146003E0146824F080041460CC7993
:10557000012C04D1146844F04004146003E0146862
:1055800024F0400414600C7A012C04D1146844F017
:105590002004146003E0146824F0200414604C7AA2
:1055A000012C04D1146844F01004146003E0146862
:1055B00024F0100414608C7A012C04D1146844F097
:1055C0000804146003E0146824F008041460CC7A22
:1055D000012C04D1146844F00404146003E014683E
:1055E00024F0040414608C78A407CD7844EA0564A0
:1055F0000D7944EA05444D7944EA05540D886D1E41
:105600002C43D461146824F001041460002300E0EA
:105610005B1C546804F001041CB14FF6FF74A342F4
:10562000F6D1546804F001040CB1002000E0012020
:1056300030BD0146088800058A7840EAC240CA7831
:1056400040EA82404A681043704738B50446142047
:105650008DF8000004208DF8010000208DF8020074
:105660008DF80340684601F03FFB13208DF80000E1
:1056700006208DF8010000208DF802008DF803400F
:10568000684601F031FB38BD10B500F5D87303EB67
:1056900001131B6803F004031372137A53B900F566
:1056A000D87303EB01131B6840F2FF7404EA5353F1
:1056B000136009E000F5D87303EB01131B686FF06A
:1056C000604404EAD303536000F5D87303EB01137D
:1056D0001B6803F00203537200F5D87303EB011348
:1056E0005B6803F00F03937200F5D87303EB0113AB
:1056F0005B681B0AD37400F5D87303EB01139B6836
:10570000D37200F5D87303EB01139B681C0A147362
:1057100000F5D87303EB01139B681C0C547300F560
:10572000D87303EB01139B681B0E937300F5D873BA
:1057300003EB0113DB68D37300F5D87303EB01139C
:10574000DB681C0A147400F5D87303EB0113DB68E3
:105750001C0C547400F5D87303EB0113DB681B0EAB
:10576000937421B9C36843F02003C36003E0036965
:1057700043F02003036110BD70B50446207A04286D
:105780002CD1607A50BB6068C0F30850122825D134
:105790006068C0F30850124908806068C0F3C040D8
:1057A00088706068C0F38040C8706068C0F3110002
:1057B0004860A07A0872002507E004F10B00415D03
:1057C000074809304155681CC5B20548007AA8420F
:1057D000F3DC034802F062F8012070BD0020FCE712
:1057E000D802002070B5044600250C48006808B9AE
:1057F000002070BD0020FFF728FF0849086802F06C
:10580000DDFB28B905480168204602F0E7FB0546A4
:105810000120FFF71AFF2846EBE70000C000002038
:1058200070B505460648006838B105480168284645
:1058300002F007FC0446204670BD0020FCE7000093
:10584000C000002010B51421084600F071FB044987
:1058500008600846006808B1012010BD0020FCE780
:10586000C000002000218171C171017241728172FA
:10587000C1728170C1700321017102214171012146
:105880000180704701460022886800F0E052B2F1C2
:10589000E05F01D1012070470020FCE710B502460F
:1058A0000020936803F08063B3F1806F00D110E0B3
:1058B000936803F00063B3F1006F01D1012008E0A9
:1058C000936803F08053B3F1805F01D1022000E0C0
:1058D0000420042874D002F5C07303EB00131B6886
:1058E00003F0010402F5C07303EB00131C600B7A94
:1058F0007BB94B7A0C8843EA445302F5C07404EB3D
:1059000000142468234302F5C07404EB00142360E0
:1059100010E00B7A4C6843EAC4034C7A234302F547
:10592000C07404EB00142468234302F5C07404EB34
:10593000001423608B7A03F00F038B7202F5C0739F
:1059400003EB00135B6823F00F0402F5C07303EB55
:1059500000135C6002F5C07303EB00135B688C7A84
:10596000234302F5C07404EB001463608B7B1C06B8
:105970004B7B44EA03440B7B44EA0323CC7A234366
:1059800002F5C07404EB0014A3608B7C1C064B7CF6
:1059900044EA03440B7C44EA0323CC7B234302F513
:1059A000C07404EB0014E36002F5C07303EB001352
:1059B0001B6843F0010402F5C07303EB00131C6085
:1059C00010BD00000149087170470000B8000020B8
:1059D00010B501211148FFF709FD01281CD100F085
:1059E00021F8012810D00120FFF7ECFF0C4800F04F
:1059F00021F8012804D10A490848FFF74FFF0BE0BE
:105A00000020FFF7DFFF07E00448FFF73BFF012816
:105A100002D10020FFF7D6FF10BD00000064004057
:105A2000B002002010B50249086802F0C7FA10BDA4
:105A3000B800002010B504460748006848B1064881
:105A40000168204602F0CAFA012800D110BD0020EA
:105A5000FCE70020FAE70000B800002010B586B08F
:105A6000044628480068002849D00020FFF7EDFDD3
:105A70002449086802F0A9FA012830D021480079A9
:105A800038B90120FFF79EFF21461F48FFF706FFA8
:105A90001FE01C480168204602F0D3FAC8B9194833
:105AA000016801A802F09AFA012806D1FFF78AFFDF
:105AB00001A91548FFF7F2FE0BE00020FFF782FF77
:105AC0001049086800F05AFD4CF250310E48FEF7BC
:105AD000D1FE0120FFF7B9FD012006B010BD002066
:105AE00008490871086800F049FD4CF25031064839
:105AF000FEF7C0FE0120FFF7A8FD0020EDE7002023
:105B0000EBE70000B80000200064004010B514214D
:105B1000084600F00DFA044908600846006808B11C
:105B2000012010BD0020FCE7B800002010B502469F
:105B30000B46002100BF04E052F82100034C206016
:105B4000491C9942F8D30148006810BD003002405A
:105B500001200149886070470030024010B54CF2C6
:105B600050310748FEF786FE06498989C1F30610C1
:105B7000FFF716FCFFF766FEFFF7C8FF10BD000039
:105B800000640040200B002010B50448FFF72AFEF7
:105B900010B1024801F026FA10BD0000C402002036
:105BA00010B5D4210A48FEF7E6FAAA200849087081
:105BB00000240AE040F2011104EB04120448001D25
:105BC00000EB82004180601CC4B2032CF2DB10BDEC
:105BD000340B00200246002002EA01030BB1012031
:105BE00000E000207047000010B510480078401C0D
:105BF0000E4908700E48006870B108460078092800
:105C000006DB002008700A480068401E084908604A
:105C100001200849087008E006480078012804D1EE
:105C200000200449087002F06BFE10BDD700002070
:105C3000D0000020D600002010B54FF4806102484B
:105C400000F0A0FD10BD0000000C014010B54FF4A5
:105C50000061024800F096FD10BD0000000C0140FC
:105C600010B50421014800F08DFD10BD000C01406D
:105C700010B50446002C2FD04FF480713E48FEF73B
:105C80007AFAFF2250213C48FEF76EFA18223BA117
:105C90003948A030FEF756FA374880303EA10A68EE
:105CA00002644A684264896881643EA10A680265A8
:105CB000496841650C20102801D9102000E00C2013
:105CC00002463BA12C48E030FEF73CFA01202A496D
:105CD00081F8FD0081F8FE002748F23038490A6853
:105CE0000260898881800120234981F8F80081F8C9
:105CF000F9003348401E007C81F8FC000320487006
:105D00003048C07810B90220887003E02D488078B0
:105D100019498870FF201849C8702A48C07810B9FE
:105D20000020087120E02748407900EB8000400007
:105D3000FF2190FBF1F201FB1200C8280ADD214887
:105D4000407900EB8000400090FBF1F0401C0A49D4
:105D5000087109E01B48407900EB80004000FF21FA
:105D600090FBF1F0044908711648407802494871E7
:105D7000FF20887110BD0000A61500204D43323071
:105D800031332D31382D30312D33312D53312E30EB
:105D9000322E3031000000004D617220333120324C
:105DA0003031380031353A30393A313300000000B3
:105DB0004D43323031332056312E30310000000057
:105DC000210B0020440100202DE9F04387B0064656
:105DD0000D4614462819401EFF2802DD07B0BDE815
:105DE000F0834FF48B70ADF8080000208DF80000B0
:105DF0008DF801004148C06820F00F003043039047
:105E00000F2E12D006EB06113D4800EB81004088B2
:105E100000123C4981F8F80006EB0611384800EB07
:105E200081008078374981F8F90000271FE00820B9
:105E3000ADF80A0007EB470005EB4000C0B28DF853
:105E4000140006208DF8150007EB470005EB400015
:105E50002C4908440168CDF816108088ADF81A0066
:105E600005A80190684601F0EFFE781CC7B2062035
:105E700094FBF0F0B842DADC062094FBF0F100FB72
:105E8000114098B3062094FBF0F100FB1140801CF8
:105E900080B2ADF80A00062094FBF0F100FB11403F
:105EA0002919081AC0B28DF81400062094FBF0F1ED
:105EB00000FB1140C0B28DF81500062094FBF0F1F4
:105EC00000FB114894FBF0F100FB11402919081A5E
:105ED0000C4900EB0109424649460DF11600FEF758
:105EE00031F905A80190684601F0AEFE0120054990
:105EF00081F8F80081F8F90000BF6FE7200B00205F
:105F0000380B0020A615002070B504460D46164635
:105F1000324628462168FEF715F970BD70B5044673
:105F20000D461646324621462868FEF70BF970BD2D
:105F300070B504460D46142004F01EF9064626B13D
:105F40002A462146304600F0CFFC304670BD0000A6
:105F500070B5002000F09EF898BB474A9188106801
:105F6000FEF709F9AA204549087000F077FE0821DC
:105F70004248401C00F024FC054600EBD570401060
:105F80004FF4FE6101EA00103C49C8600846808970
:105F900000F4FE60B0F5FE6F02D14FF4FC60C86003
:105FA000032036490874002000F00EF9324A118DA2
:105FB000506AFEF7E0F8AA2031490870032000F08B
:105FC00003F9012000F066F820B9FFF7E9FD012090
:105FD00000F0FAF8022000F05DF898B9264A918B9B
:105FE0009069FEF7C8F8AA20264908700120487079
:105FF00008710020C87001208870FF2048710220BD
:1060000000F0E2F81F49087903F074FA1D49C878D6
:1060100003F07EFA1B49487903F0B4FA19498878ED
:1060200003F098FA0021144880F82010032000F0B3
:1060300031F8002417E0022004EB4401124A02F870
:106040001100C01E114901EBC401C88004EB4401DA
:106050000F4A02EB4101488004EB440102EB41018D
:106060008880601CC4B2032CE5DB4FF0FF31084888
:106070008182C18270BD000004000020200B00203E
:10608000320C002044010020080C0020E000002019
:106090001A0C00202DE9F041054605EB45000E499C
:1060A00001EB80042768E288A1882068FEF7E0FC05
:1060B00001280FD120680078AA2802D00020BDE86E
:1060C000F081A188384600F06DFBC6B2FF2E01D1E9
:1060D0000120F4E70020F2E7040000202DE9F04160
:1060E00005460E46144CD4F800804FF4C87068433F
:1060F00000EB80004FF4E05101EB400006EB86011D
:1061000000EB4100E080E288A1882068FEF7B0FC47
:1061100001280FD120680078AA2802D00020BDE80D
:10612000F081A188404600F03DFBC7B2FF2F01D1AE
:106130000120F4E70020F2E73400002010B51248F7
:10614000B0F90000002806DD0F480088401E00B2AC
:106150000D49088010BD44F620600B4908800024DA
:106160000DE004EB4400094901EB8000007A0128AE
:1061700003D1204600F028F803E0601CC4B2052CCF
:10618000EFD300BF00BFE5E70000002004000020BF
:10619000012100EB4002054B03EB82021172022841
:1061A00002D10021024A1180704700000400002043
:1061B0000000002070B504460D46164632462946BA
:1061C0002046FEF771FC70BD70B50546002005EB5A
:1061D00045010E4A02EB8101087205EB45001146AC
:1061E00001EB80042668A088401E81B2304600F092
:1061F000D9FAC043C1B2A088401E22681154E28877
:10620000A1882068FFF7D6FF70BD000004000020C1
:106210002DE9F04106460F4600BF0021194880F8DD
:106220002C1000F12404D4F80080A088401E81B214
:10623000404600F0B7FAC043C1B2A088401E2268B1
:10624000115440F66815E3882B449AB2A3885B1B6F
:1062500099B223685819FFF7ADFF40F291107043CF
:10626000094901EB4000801C00EB4700891E451ADC
:10627000E18829448AB2216848190221FFF79AFF70
:10628000BDE8F08104000020340C002070B5054604
:106290000C4644F620600F49088001210E4880F822
:1062A00038104FF4C870684300EB80004FF4E051A1
:1062B00001EB400004EB840100EB410081B2064891
:1062C000C1860420FFF780FF44F620600149088062
:1062D00070BD000000000020040000207047000096
:1062E0000146481C80B10A48B0F90000814205D13E
:1062F00007480088401E00B2054A1080002001EBCC
:106300008102044B03F822004FF0FF307047000079
:10631000FC000020A8160020F0B587B0044600203D
:106320000190267C6089032801DA07B0F0BD676818
:10633000BB1C7A783978207C01F09CF8054640F245
:106340001710ADF8100000208DF808008DF8090036
:10635000607850B101208DF8090006EB06110F4856
:1063600000EB81004068059008E000208DF80900EE
:106370000B48C06806F00F01084305900220ADF8F5
:106380001200606800788DF804008DF8055001A8AF
:10639000039002A801F058FC00BFC6E7380B0020AC
:1063A000200B002030B503460020002116E000221B
:1063B0000FE001EB01150B4C04EB8504241D54F890
:1063C00022409C4203D101248C40204303E0541C12
:1063D000E2B2102AEDDB00BF4C1CE1B20329E6DB80
:1063E00030BD0000380B002010B500BF44F620631C
:1063F000DA101649002002F0ABF91549088015485B
:106400008089C0F3061404F1640000EB80004200B0
:1064100049F640431049002002F09AF90F490880DC
:1064200003F02CF964231A460D49002002F090F97C
:1064300064231A460B49002002F08AF964231A46A5
:106440000949002002F084F910BD0000D58600083B
:10645000DC000020200B002079860008DE000020F0
:10646000514500086D690008156F000810B54FF41C
:10647000807000F06FF800285BD000202D49086084
:106480002D480078002850D0082003F0C1FA0024DD
:1064900022E00120A040284909780840D0B101201D
:1064A000A040264909780840A0B902212046FEF7FD
:1064B000E3FB0120A0402249097881432048017074
:1064C0000120A0401C49097881431B480170142019
:1064D0001C490855601CC4B2032CDADB002422E0FE
:1064E0000120A040144909780840D0B10120A04003
:1064F000124909780840A0B101212046FEF7BCFBF3
:106500000120A0400E49097808430D490870012078
:10651000A0400949097881430748017014200949BE
:106520000855601CC4B2032CDADB4FF4807000F015
:106530000BF810BD540000205C0000205E0000201D
:106540005D0000205F0000200149086070470000E6
:1065500014040140014600200022074B1B6803EA97
:106560000102054B14331B680B4013B10AB1012023
:1065700000E00020704700000004014070B50446B0
:10658000E06803F0F9FD05460DB9002070BD09E093
:106590002146284601F022FD20B9284603F0A0FA42
:1065A0000020F3E7204601F009FD0028F0D028463E
:1065B00003F096FA0120E9E72DE9F04102460025B3
:1065C0000026002000230024002791F803C00CF0CF
:1065D0000F0591F803C00CF0100CBCF1000F03D0B4
:1065E00091F802C04CEA050591F800C0BCF1000F1B
:1065F00031D0146800202BE04FF0010C0CFA00F3AE
:10660000B1F800C00CEA03069E4220D183004FF08F
:106610000F0C0CFA03F7BC4305FA03FC4CEA040424
:1066200091F803C0BCF1280F06D14FF0010C0CFA11
:1066300000FCC2F814C00AE091F803C0BCF1480F96
:1066400005D14FF0010C0CFA00FCC2F810C0401C40
:106650000828D1D31460B1F800C0BCF1FF0F34DDBD
:10666000546800202EE000F1080C4FF0010808FAF1
:106670000CF3B1F800C00CEA03069E4221D183005E
:106680004FF00F0C0CFA03F7BC4305FA03FC4CEA7D
:10669000040491F803C0BCF1280F05D100F1080CE7
:1066A00008FA0CF8C2F8148091F803C0BCF1480F46
:1066B00007D100F1080C4FF0010808FA0CF8C2F8F5
:1066C0001080401C0828CED35460BDE8F081000043
:1066D000F0B50A46002300240021002500F0004602
:1066E000B6F1004F02D11D4EF16901E01B4E7168F9
:1066F000C0F3034583B200F44016B6F5401F08D13D
:1067000021F07061154E766826F07066134F7E603A
:1067100012E000F48016B6F5801F06D1032606FAB3
:1067200005F4A14341F0706106E0460D360103FA1D
:1067300006F6B14341F0706122B1460D360103FA0D
:1067400006F6314300F00046B6F1004F02D1034E89
:10675000F16101E0014E7160F0BD000000000140F8
:106760000246002093680B400BB1012000E000209E
:10677000704702460020D3680B400BB1012000E0B7
:106780000020704741617047016170470AB10161A3
:1067900000E041617047000001490888704700002F
:1067A0008E00002010B502460B460020002104E0B8
:1067B000545C0444A0B24C1CA1B29942F8DB10BD59
:1067C00030B502460B46002014E080210FE000F0B7
:1067D000800424B14406200E80F0310001E044061C
:1067E000200E14780C400CB180F0310049100029C3
:1067F000EDD1521C1C00A3F10105ABB2E5D130BDB7
:1068000000BFFEE74CF6CC4001490860704700002D
:10681000003000404AF6AA20014908607047000095
:1068200000300040014948607047000000300040DF
:10683000014988607047000000300040014908604D
:10684000704700000030004030B587B00446257C1A
:106850002069032842D26068007810283EDA606818
:10686000407800046168897840EA01206168C9784D
:106870000843C0F3110105EB0512194800EB820033
:10688000001D6268127840F822100120FFF780FC9A
:1068900040F21310ADF8100000208DF808008DF8BC
:1068A00009001048C06805F00F0108430590042056
:1068B000ADF81200606840788DF804006068807858
:1068C0008DF805006068C0788DF8060000208DF80E
:1068D000070001A8039002A801F0B6F907B030BD87
:1068E000380B0020200B002000230374436003605A
:1068F0000372C160427201230374704710B5002413
:1069000004210348FFF72CFF00B90124204610BDE5
:106910000008014010B5002408210348FFF720FFBC
:1069200000B90124204610BD0008014010B5002424
:1069300010210348FFF714FF00B90124204610BDC1
:106940000008014038B50446206807490840B0F106
:10695000005F06D160680090009D2068FDF7D9FBBC
:10696000A847012038BD00000000FE2F2DE9F041AE
:106970008046FFF739F902F097FD7D48007868B945
:106980007C480078142804DD00F014F900207949CF
:10699000087078480078401C7649087002F0A4FC22
:1069A0000746002F7ED0781E032190FBF1F0C4B281
:1069B000781E90FBF1F201FB1200C6B2032C07DD3A
:1069C00036B902206C49086002F01AFCBDE8F0817B
:1069D00069480068A8B1012E13D1684800F8246006
:1069E0000020664901EB84014870644901EB840191
:1069F000887061480068401E5F49086002F000FC32
:106A0000E4E700205C49086056B95D480078C8B9E1
:106A1000204602F0D3FD5B494878FDF78DFD11E07B
:106A2000032C0FDD022E0DD15548007850B92046B9
:106A300002F0C4FD0C2C05D00D2C03D05149487830
:106A4000FDF77AFD012E16D14C4810F824000228DB
:106A500011D04A4800F824602820484901EB8401FD
:106A60004870464800EB84008078401C434901EBA5
:106A70008401887079E0022E17D100203F4901EB94
:106A8000840188703D4901EB840148703B4800F85F
:106A900024600221204603F055F8032C65DD022016
:106AA000354900E019E008605FE0012E5DD1334810
:106AB00010F82400022858D10020304901EB84014D
:106AC00088702E4901EB840148702C4800F824603E
:106AD0000321204603F036F847E0002543E027482D
:106AE00010F8250001283CD1244800EB85004078AF
:106AF000002836DD214800EB85004078401E1F4904
:106B000001EB850148701D4800EB8500407840BBD3
:106B10001A4800EB85008078012804D1002128461E
:106B200003F010F814E0154800EB85008078022887
:106B300004D10121284603F005F809E00F4800EBD5
:106B400085008078032803D10421284602F0FAFF4B
:106B500000200A4901EB85018870FF20074901F8F0
:106B60002500681CC5B2032DB9DB00BF2EE700006D
:106B70007D000020840000208000002067020020AB
:106B8000760000204401002070B505464FF4804196
:106B90000748FFF7EEFD08B9012000E00020044699
:106BA00022464FF480410248FFF7F0FD70BD00001F
:106BB000000C014070B5FDF75FFCFFF7EDFD0646E8
:106BC000C6F30714C4F1FF04052C00DA05241548A8
:106BD000C4708078A04212DA12488078201AC5B2B8
:106BE000022D00DD0225012D1BDB0E488078284494
:106BF000C4B2204602F0C6FC0A48847011E009487D
:106C00008078001BC5B2022D00DD0225012D08DBB6
:106C100004488078401BC4B2204602F0B3FC01480F
:106C2000847070BD8800002009490978491C084A11
:106C3000117011460978032904DD0021117001212A
:106C4000044A11704FF0FF31034A11807047000071
:106C5000D4000020D8000020CE00002070B5144ED3
:106C60000C213046FFF79EFD05460121402001F032
:106C70002FFAFEF76DFF03213046FEF757FF04465B
:106C8000200E0C494870210C0A488170210AC170FD
:106C90000471C5F307114171F02000EA0510C01C12
:106CA0000449887101210348C171017270BD00005F
:106CB000E8F7FF1F200B002000BFFEE7704708B574
:106CC0004FF4407000F048F81E208DF800000820B6
:106CD0008DF8010000208DF8020001208DF80300DE
:106CE000684600F001F808BD70B5002100230F22AE
:106CF000C47804B3154C246804F4E064C4F5E0647B
:106D0000210AC1F10403CA40447804FA03F18478EB
:106D10001440214309010E4C0678A155047804F073
:106D20001F050124AC4005786D11AD0005F1E0258B
:106D3000C5F8004109E0047804F01F050124AC40C7
:106D4000044D0678761145F8264070BD0CED00E044
:106D500000E400E080E100E002490143024A1160E2
:106D6000704700000000FA050CED00E0024A0A40FE
:106D70000243024B1A60704780FFFF1F08ED00E0DE
:106D800010B520210348FFF7FDFC40210148FFF723
:106D9000FBFC10BD000C014010B540210348FFF77B
:106DA000F1FC20210148FFF7EFFC10BD000C014071
:106DB00010B520210348FFF7E5FC40210148FFF70B
:106DC000E1FC10BD000C014010B580210448FFF724
:106DD000D9FC4FF480710248FFF7D6FC10BD0000CB
:106DE000000C014010B54FF480710448FFF7CAFC55
:106DF00080210248FFF7C8FC10BD0000000C0140D4
:106E000010B54FF480710448FFF7BCFC80210248A4
:106E1000FFF7B8FC10BD0000000C014010B54FF4A6
:106E200000710448FFF7AEFC02210248FFF7ACFCFA
:106E300010BD0000000C014010B502210448FFF70E
:106E4000A1FC4FF400710248FFF79EFC10BD00004A
:106E5000000C014010B502210448FFF793FC4FF4E9
:106E600000710248FFF78EFC10BD0000000C0140CD
:106E700010B588B004462448B0F90000401CE8BBB7
:106E800040F21110ADF8140000208DF80C008DF8C0
:106E90000D001E48C068217C01F00F0108430690D8
:106EA0000820ADF816001948401C0168019140689F
:106EB0000290207C00F00F0000EB0011144800EB62
:106EC0008100408800128DF80A00207C00F00F003D
:106ED00000EB00110E4800EB810080788DF80B006C
:106EE0009DF8090000F0F000217C01F00F0108433B
:106EF0008DF8090001A8049003A800E002E000F06A
:106F0000A3FE00BF08B010BDDC000020200B002055
:106F1000380B002070B50546002411E00B48005DD9
:106F200000280BDD0948005D401E08490855084649
:106F3000005D18B900212046FDF79EFE601CC4B21A
:106F4000032CEBDBFDF7CEFF70BD00005F000020DF
:106F5000014908627047000000000E4210B588B079
:106F600004461D48B0F90000401C90BB40F21110CF
:106F7000ADF8140000208DF80C008DF80D001748B6
:106F8000808900F4FE60217C01F00F01084340F489
:106F9000804006900820ADF816001048401C01689B
:106FA00001914068029004208DF80A0006208DF8B7
:106FB0000B009DF8090000F0F000217C01F00F01AA
:106FC00008438DF8090001A8049003A800F03CFED6
:106FD00000BF08B010BD0000DC000020200B002026
:106FE0007047000070B50446207A042827D1607AE3
:106FF00028BB6068C0F30850124908806068C0F37D
:10700000C04088706068C0F38040C8706068C0F39A
:1070100011004860A07A0872002507E004F10B0017
:10702000415D084809304155681CC5B20548007AE1
:10703000A842F3DC034800F031FC012070BD0020C1
:10704000FCE70000D802002070B504460025266940
:10705000E068C0F3C62008B9002070BD0025BCE080
:107060000120A840304000286FD02561804805618C
:10707000208992286AD014DC112868D008DC022804
:1070800031D0072822D0082829D009286FD12DE037
:1070900012287DD0142834D020282AD03128F5D1C8
:1070A0002BE097284DD008DC93286DD0942829D068
:1070B00095282FD09628E9D14AE0A32826D0B128D8
:1070C0005ED0A0F2F1100028E0D16EE0616849784E
:1070D0006268127801EB022001F012FC7AE00020D5
:1070E00001F00EFC76E003F0C9F873E002F03EFC1C
:1070F00070E0204602F0DAFB6CE0204603F0C6F8B0
:1071000068E000BF204603F06DF863E0204602F01F
:10711000E7FB5FE0607868B9207B00F00F000F2884
:1071200008D12061204602F095FC0020FEF7A0FD6A
:10713000012092E7204602F08DFC0020FEF798FD2A
:1071400048E02046FFF7E8F844E044E024E028E087
:10715000607870B9207B00F00F000F2809D16068BB
:10716000427801780F20FEF72FFE012075E730E00E
:107170000EE063685A781978207CFEF725FE29E036
:10718000204601F083F925E02046FFF75DFB21E072
:10719000204601F017F81DE0002001F09BFA0120C5
:1071A0005BE72046FFF764FE14E0002031490870D9
:1071B0003148B0F90000401C50B12F48B0F9000030
:1071C000FFF78EF84FF0FF302B490880012044E78D
:1071D00000E000BF00BF681CC5B22848007CA84280
:1071E0003FF73EAF06F00800A0B30320206120491E
:1071F0000861208996282FD004DC112813D0952807
:1072000031D105E097280AD0A0F2F11058BB0EE06A
:10721000204602F01FFC0020FEF72AFD24E0204655
:10722000FFF77AF820E02046FFF798FE1CE00020E8
:10723000104908701048B0F90000401C58B10E48C1
:10724000B0F90000FFF74CF84FF0FF300A49088012
:10725000012002E709E007E06068427801782846EB
:10726000FEF7B2FD00E000BF00BF0120F5E6000020
:10727000F8060020D8000020CE000020200B0020BF
:107280002DE9F0470646884617461D460024A146CC
:10729000032E53D100BF4CE008EB0400801E0528EC
:1072A00041D2DFE800F0032223383F00285D48B9CF
:1072B000002002F04FF9FF2002F06EF9012002F0E9
:1072C00027F911E0285D012808D102F043F9FF20D9
:1072D00002F062F9012002F01BF905E0012002F042
:1072E00039F9002002F014F920E01FE0285D18B9F8
:1072F000002002F00DF90DE0285DC0EB00200A210E
:1073000090FBF1F000F0FF0A504602F045F9012031
:1073100002F0FEF80AE0285D514948700220FEF7AD
:1073200053FF03E002E04FF0010900BF00BF601C03
:10733000C4B2BC42B0DB4846BDE8F0870F2E38D15E
:10734000002432E008EB0400F82802D0FC2826D103
:1073500004E0601CC4B24FF0010923E0285D03285B
:1073600003DD03203F49087402E0285D3D490874AD
:107370003D48B0F90000401C20B13B48B0F9000086
:10738000FEF7AEFF44F62063DA103849002001F022
:10739000DFF9354908800020FEF7FAFE02E04FF0E1
:1073A000010900BF00BF601CC4B2BC42CADB484632
:1073B000C2E7062E01DD0120BEE700244CE008EB09
:1073C0000400F82802D0FC2840D13EE0022F02DA67
:1073D0004FF001093DE0601C285C295D00EB0120B5
:1073E00040F2011188420BD0601C285C295D00EB43
:1073F00001204FF6FF71884202D04FF0010928E0CA
:10740000601C285C295D00EB012081B206EB0612AE
:10741000174800EB82004180601CC4B21248B0F9EA
:107420000000401C20B11048B0F90000FEF758FFE2
:1074300044F62063DA100D49002001F089F90A4969
:1074400008800020FEF7A4FE03E002E04FF00109EF
:1074500000BF00BF601CC4B2BC42B0DB48466BE753
:1074600044010020200B0020DC000020D58600080D
:10747000380B00202DE9F04105460E4617461C4604
:10748000032D6ED1052E02D0062E68D15BE0072FAA
:1074900000DA65E02078032802DC2078012800DA91
:1074A0005EE06078052800DB5AE0A0790A2800DB5E
:1074B00056E06078012800DA52E06078401E607083
:1074C0002078401E207061792078C0EB001000EB1E
:1074D0008002254810446278C2EB02121044C17049
:1074E000A1792078C0EB001000EB80021E48104408
:1074F0006278C2EB0212104401712078C0EB0010D8
:1075000000EB8001184808446178C1EB0111084480
:107510006188018021798170A07900280FDD2178B0
:10752000C1EB011101EB81030F4919446378C3EBEF
:1075300003131944481DA279E11DFCF703FE022044
:10754000FEF726FE0CE0E1210748FCF714FEAA2016
:107550000549891F08700220FEF71AFE00E000BFEF
:1075600000BF0020BDE8F0814A01002010B51421C1
:107570000348FCF700FE03480149486010BD0000C5
:10758000F806002020070020F0B589B005460E4619
:1075900014461F4605F4802030B11420ADF81800C1
:1075A00001208DF8110005E09420ADF818000020AE
:1075B0008DF81100062C03DD01208DF8100002E08B
:1075C00000208DF81000C5F311000790A01CADF845
:1075D0001A008DF800608DF80140002C05DD224670
:1075E00039460DF10200FCF7ADFDCDF814D004A82A
:1075F00000F02AFB09B0F0BD30B587B005460C4657
:107600004FF49070ADF8100000208DF808008DF850
:1076100009000D48C06840F0030005900420ADF853
:10762000120001208DF8000002208DF80100681C76
:10763000C0B28DF802008DF80340CDF80CD002A83E
:1076400000F002FB07B030BD200B00202DE9F04711
:1076500004460E4617461D46E02E06D0E12E3AD0CF
:10766000E22E3FD0E32E74D174E06878297800EBE5
:1076700001201FFA80F817B1B8F1010F01DA4FF0BD
:107680000508012004EB4401804A02F8110004EBD4
:107690004400114601EB4000B0F90200401C38B133
:1076A00004EB440102EB4101B1F90200FEF718FEC0
:1076B0004FF47A7008FB00F000EB800042000023DA
:1076C0007349204601F044F804EB44016F4A02EB91
:1076D0004101488058E0002004EB44016B4A02F865
:1076E000110051E06878297800EB01201FFA80F83A
:1076F00017B1B8F1010F01DA4FF00508012004EBD2
:107700004401624A02EB4101487004EB4400114617
:1077100001EB4000B0F90400401C38B104EB440117
:1077200002EB4101B1F90400FEF7DAFD4FF47A7083
:1077300008FB00F000EB8000420000235549204682
:1077400001F006F804EB4401504A02EB4101888045
:107750001AE018E0002004EB44014C4A02EB41011E
:10776000487004EB4400114601EB4000B0F90400FE
:10777000401C38B104EB440102EB4101B1F90400B3
:10778000FEF7AEFD00E000BF00BF04EB44003F4940
:1077900011F8100008B1BDE8F087D02E24D006DC27
:1077A000012E20D0022E30D0042E6AD140E0D12EFE
:1077B0002CD0D22E3BD0D32E63D104EB44003349DE
:1077C00001EB4000407800B15CE06878297800EB7C
:1077D00001201FFA80F895F803904A46414620465A
:1077E00000F0B8FD4EE000BF012004EB44012A4A3E
:1077F00002F8110001212046FDF7F8FB00231A468C
:107800000121204600F096FB3CE000BF022004EB83
:107810004401214A02F8110002212046FDF7E6FB4F
:1078200000231A460221204600F084FB2AE000BF14
:1078300004EB4400184911F81000012810D102216E
:107840002046FDF7D3FB022004EB4401124A02F864
:10785000110000231A460221204600F06BFB0FE0C6
:1078600001212046FDF7C2FB012004EB44010A4A36
:1078700002F8110000231A460121204600F05AFBAD
:1078800000E000BF00BF00BF85E700001A0C002029
:10789000A1820008BD820008080C002010B586B047
:1078A00004461422C74901A8FCF74CFCC64960688D
:1078B000C860E0784870A0780870208812280CD141
:1078C0002088088104F109004860207A4881084630
:1078D00000F078FC012006B010BDE078B0BBBB48DA
:1078E000C168BB4A60681040814230D0B748808987
:1078F00000F4FE60B0F5FE6F10D1606800F47E30D9
:10790000B249C96801F47E31884207D0606800F44A
:107910007E30B0F57E3F01D00020DCE7AB488089A7
:1079200000F4FE60B0F5FE6F11D0A08800F4FE6098
:10793000A649898901F4FE61884208D0A08800F434
:10794000FE60B0F5FE6F02D00020C4E711E02079A0
:1079500000F00F000F2807D0207900F00F01012060
:107960008840994908610CE04FF0FF309649086162
:1079700007E06068FEF716FD9349086108B900202A
:10798000A9E7A07801287DD1607AFF2805D1A07AE7
:1079900018B900F0A7F901209DE7607AFF280BD104
:1079A00000208C4908808C4908808C48B0F9000080
:1079B00000F062FC00F096F9607A98BB207E88BBEC
:1079C0000120207600206076A07AA076217BE07AE4
:1079D00041EA0020A083607B0104A07B41EA0020F3
:1079E000E17B084360612046FDF723FE6FF3120040
:1079F00061690843029002208DF80E00FF208DF887
:107A00000F0000218DF8101001A8FEF727F842F2B0
:107A100010731A467249002000F09AFEE08301209C
:107A2000607658E7FFE7607A922801DD002052E790
:107A3000607A617E884215DA2046FDF7FAFD6FF321
:107A4000120061690843029002208DF80E00FF20A9
:107A50008DF80F0000218DF8101001A8FDF7FEFF32
:107A6000002038E7607E617A884235D1A07E617A55
:107A7000884231DDB4F81E14207A401E0844A4F870
:107A80001E0400E090E0217A4A1E617E491EC1EB8F
:107A9000C10304F1200158181639FCF753FBB4F95F
:107AA0001E0000F0E9FB2046FDF7C3FD6FF3120056
:107AB00061690843029002208DF80E00FF208DF8C6
:107AC0000F0000218DF8101001A8FDF7C7FF607EA0
:107AD000401C60760120FEE6607E617A884242D1D9
:107AE000A07E617A88423ED1B4F91E00FEF7F8FB11
:107AF0004FF0FF30E083B4F81E14207A401E084493
:107B0000A4F81E04217A4A1E617E491EC1EBC103FE
:107B100004F1200158181639FCF714FB20882A4973
:107B2000088104F120004860B4F81E044881204612
:107B3000FDF77FFD6FF31200616908430290022098
:107B40008DF80E00FF208DF80F0006218DF8101023
:107B500001A8FDF783FF1C48FFF776FA00202149B2
:107B6000087648762BE0B4F91E00FEF7B9FB4FF01B
:107B7000FF30E08300201B49087648762046FDF759
:107B800058FD6FF3110061690843029002208DF8DF
:107B90000E00FF208DF80F0004218DF8101001A8B1
:107BA000FDF75CFF002096E620880749088104F174
:107BB00009004860207A48810846FFF745FA01200D
:107BC00089E6000060A300080C070020200B0020BD
:107BD000F0FF0300CA000020CC000020C8000020F5
:107BE000E97B0008D802002010B586B004461422B4
:107BF000134901A8FCF7A6FA002012490876487636
:107C00000846FDF716FD6FF311000E494969084358
:107C1000029002208DF80E00FF208DF80F00022147
:107C20008DF8101001A8FDF719FF0649B1F91E00E3
:107C3000FEF756FB4FF0FF300249C88306B010BD77
:107C40004CA30008D802002030B585B004461422A9
:107C500020496846FCF776FA608908281FDC2089ED
:107C60000005217840EAC140617840EA8140E1683E
:107C7000C1F3110108430190A07A8DF80A00002594
:107C800006E06068415D0DF10B004155681CC5B20E
:107C90006089A842F5DC6846FDF7E0FE17E00020A9
:107CA0000D4908800D49088020890D4908812078F8
:107CB000087060784870E068C860608948816289AF
:107CC000074B61685868FCF73DFA00F00BF801209B
:107CD00005B030BD88A30008CA000020CC000020F9
:107CE000F806002010B586B014227A4901A8FCF7E6
:107CF00029FA79480088002863D17848B0F9000053
:107D0000401C40B17548B0F90000FEF7E9FA4FF0A9
:107D1000FF307249088042F210731A467049002001
:107D200000F016FD6D4908806E48008900056D4918
:107D3000097840EAC1406B49497840EA8140694985
:107D4000C9680843029007208DF80E0000208DF8C6
:107D50000F0064484089072190FBF1F0614949898F
:107D6000072291FBF2F302FB1311002901DD01212F
:107D700000E000210844C1B28DF810105948408934
:107D8000010A8DF811105748817A8DF81210564863
:107D9000C068010C8DF8131053488089010A8DF8D2
:107DA00014105148007B4F49097C01F00F01084332
:107DB0008DF8150001A8FDF751FE01204649088005
:107DC00086E04648B0F9000000F056FA45480089C0
:107DD00000054449097840EAC1404249497840EAEF
:107DE00081404049C968084302903E4841893A4869
:107DF000B0F90000401EC0EBC000081A07281FDDC4
:107E000008208DF80E0034480088C0B28DF80F00AD
:107E100001240FE0334841682F48B0F90000401EAC
:107E2000C0EBC0002044401E095C0DF10F0001555D
:107E3000601CC4B2082CEDDB01A8FDF70FFE41E089
:107E4000284841892448B0F90000401EC0EBC0001A
:107E5000081A002836DD2348817A1F480088401E12
:107E6000C0EBC000081AC0B28DF80E001A48008896
:107E7000C0B28DF80F0001240FE01A48416816487F
:107E8000B0F90000401EC0EBC0002044401E095C59
:107E90000DF10F000155601CC4B29DF80E00A04208
:107EA000EBDC00200C490880104908800B48B0F931
:107EB0000000FEF715FA4FF0FF300849088001A8CE
:107EC000FDF7CCFD04480088401C00B20249088040
:107ED00006B010BD74A30008CA000020C80000202E
:107EE000F17E0008F8060020200B0020CC000020C6
:107EF00010B504460C48B0F90000032813DC00203C
:107F00000A49088008480088401C00B206490880D9
:107F10000748B0F90000FEF7E3F94FF0FF300449DD
:107F20000880FFF7DFFE10BDCC000020CA00002053
:107F3000C8000020F0B587B004460E4615461F461F
:107F400004EB44001B4901F8106004EB440001EB12
:107F50004000457004EB4401164A02EB4101881CC5
:107F60002A463946FCF7EEF84FF49070ADF8100051
:107F700000208DF808008DF809000F48C06804F053
:107F80000F0108430590A81CADF812008DF80060A1
:107F90008DF80150002D05DD2A4639460DF102000D
:107FA000FCF7D0F8CDF80CD002A8FFF74DFE07B0D3
:107FB000F0BD0000080C0020200B00200146087ACC
:107FC00008B9012070470020FCE70146087A4A7A88
:107FD000904201DB012070470020FCE770B50646A7
:107FE0000C46207C01282AD1002020742046FFF76F
:107FF000E5FF18B101202074002070BD3146E26811
:108000006068FDF781FF65686068406860602868A7
:1080100001F066FD00202860284601F061FD002582
:10802000606810B1002061688860207A401E20726C
:10803000207A08B90020206001202074DDE70020AC
:10804000DBE72DE9F04107460C4600260025207CA1
:1080500001283AD1002020742046FFF7B6FF20B156
:10806000012020740020BDE8F081E06802F084F86F
:1080700006461EB9012020740020F4E70C2002F00F
:108080007BF8054635B9304601F02AFD0120207401
:108090000020E8E72E6029463846E268FDF73EFFFB
:1080A000002068602046FFF789FF18B16560002056
:1080B000A86003E0206845602068A8602560207AF9
:1080C000401C207201202074CDE70020CBE7000087
:1080D00029B1064A52690243044B5A6104E0034A3B
:1080E00052698243014B5A61704700000010024000
:1080F00029B1064AD2690243044BDA6104E0034A1B
:10810000D2698243014BDA617047000000100240DF
:1081100029B1064A12690243044B1A6104E0034A7A
:1081200012698243014B1A6170470000001002403F
:1081300029B1064A92690243044B9A6104E0034A5A
:1081400092698243014B9A6170470000001002401F
:1081500029B1064AD2680243044BDA6004E0034ABC
:10816000D2688243014BDA60704700000010024081
:1081700010B501210420FFF7BBFF10BD00210B4A01
:1081800011700A4A203A82F82010012802D00428EF
:1081900008D103E00121054A117004E00521034ADA
:1081A000117000E000BF00BF7047000020100240C7
:1081B00010B54FF400610248FEF7D2FA10BD00007E
:1081C000000C014070B50546002408E06868015DB8
:1081D0002448005D814200D003E0601CC4B2082C3A
:1081E000F4DB00BF082C19D11F49E86808401D497D
:1081F000491EC8600020FDF7CBFF1C48B0F9000005
:10820000FEF76EF84FF0FF30184908801549491EF7
:108210008989C1F30610FDF7C3F800E070BD14486A
:10822000B0F90000401C40B11148B0F90000FEF761
:1082300057F84FF0FF300E4908800A48401E8089E9
:10824000C0F3061404F1640000EB8000420049F61C
:1082500040430849002000F07BFA0549088000BF30
:10826000DCE70000210B0020F0FF0300DC00002011
:10827000DE000020798600080146481C58B101EB59
:108280008100064A02EB8000006901EB8102034B8A
:1082900003EB8202D0604FF0FF307047A816002039
:1082A000042800D37047002100EB4002024B03F882
:1082B000121000BFF6E700001A0C0020042800D3BB
:1082C0007047002100EB4002024B03EB4202517069
:1082D00000BFF5E71A0C002008B54FF40060ADF8B8
:1082E000000048208DF8030069460248FEF764F953
:1082F00008BD0000000C014008B54FF40060ADF867
:10830000000010208DF8030003208DF8020069465C
:108310000148FEF751F908BD000C0140704700000C
:1083200070B504460A4D05EBC405AB1C084D05EBC2
:10833000C4056A78064D15F83410E0B2FFF786F9E7
:108340004FF0FF30294601EBC401C88070BD00002A
:10835000E00000202DE9F04104460F46904640F22F
:1083600091106043454911F8100000287BD1002589
:108370007DE040F291106043404901EB4000801CD9
:1083800030F81500B84270D129462046FDF7A6FE08
:1083900008B9BDE8F081B8F1010F07D138488278FB
:1083A0004178C31C2046FFF751F95BE03448007A5E
:1083B0003349C97900EB012086B2DEB9314800EBC0
:1083C000C400B0F90600401C60B12E4901EBC401A5
:1083D000B1F90600FDF784FF4FF0FF30294901EBAA
:1083E000C401C880264882784178C31C2046FFF724
:1083F0002DF937E022484078224901F8340020481E
:10840000807801EBC40148701E4901EBC4014A7831
:108410001C4901EBC401881C1949C91CFBF792FED9
:10842000184800EBC400B0F90600401C60B11549C3
:1084300001EBC401B1F90600FDF752FF4FF0FF3028
:10844000104901EBC401C8806420704300EB800038
:10845000420000230C49204600F07AF9094901EB5B
:10846000C401C88007E007E0FFE7681C85B2B5F5E6
:10847000C87FFFF67EAF00BF00BF8AE7340C002044
:108480009C150020E00000202183000870B586B014
:108490000446267C6089062801DA06B070BD40F2E9
:1084A0003110ADF80C0000208DF80400607850B158
:1084B00001208DF8050006EB06116B4800EB8100EA
:1084C0004068049008E000208DF805006748C06807
:1084D00006F00F01084304900320ADF80E00606819
:1084E00000788DF80000606840788DF80100002069
:1084F0008DF80200CDF808D05D4800210160416090
:108500000181002548E040F291107043594901EB88
:108510004000801C30F81500616849786268127864
:1085200001EB0221884235D1AA20514908706068C8
:10853000807848706068C078887008468178608963
:10854000801F814203DDA07A801F49498870484816
:108550008078042802DD04204549887044488278E8
:108560006068011D4248C01CFBF7ECFD6089801E5D
:108570006168085C3E49C8716089401E6168095C99
:108580003B480172207C2946FDF780FE01A8FFF7D9
:108590005BFB82E7681C85B2B5F5C87FB3DB0025BD
:1085A0005CE040F2911120694843324901EB400000
:1085B000801C30F8150000284ED1AA202C490870E4
:1085C0006068807848706068C078887008468178F4
:1085D0006089801F814203DDA07A801F2449887052
:1085E00023488078042802DD04202149887020482F
:1085F00082786068011D1E48C01CFBF7A3FD6089DE
:10860000801E6168085C1A49C8716089401E6168F3
:10861000095C17480172AA201649891E0870606813
:1086200040786168097800EB012082B240F2911134
:10863000206948430F4901EB4000801C20F81520B9
:10864000207C2946FDF7E4FD207C2946FDF71EFE2F
:1086500001A8FFF7F9FA20E7681C85B2B5F5C87FD5
:108660009FDB00BF19E70000380B0020200B002023
:108670009C150020340C002010B586B004464FF441
:10868000F870ADF80C0000208DF804008DF805009E
:108690000D48C06840F00F0004900020ADF80E00B7
:1086A00001A8FFF7D1FA0948B0F90000401C40B911
:1086B000002341F288320649184600F049F8034980
:1086C000088006B010BD0000200B0020CE00002066
:1086D000296C000810B586B004461A480078401C82
:1086E000184908704FF48970ADF80C0000208DF81F
:1086F00004008DF805001448C06840F00F00049095
:108700000820ADF80E001048401C029002984079F5
:1087100000F0F0000C49097C08430299487101A857
:10872000FFF792FA07480078322808D10748B0F9D5
:108730000000FDF7D5FD4FF0FF300449088006B07A
:1087400010BD0000D5000020200B0020DC00002020
:108750002DE9F05F8246894617469B4600252B4C43
:1087600049E0B9F1000F43D02078002840D12848D3
:10877000B0F90000401C854205D125480088401C06
:1087800000B22349088001F0D3F90646B8464FF6F7
:10879000FF70804501D2404601E04FF6FF708046F1
:1087A0001C480068801B404508D906EB08001949A1
:1087B00008600846006801F0A3FD0CE01548006859
:1087C0004FF6FF71884202D21248006801E04FF66E
:1087D000FF7010490860C4F80890C4F804A0B819E4
:1087E000E060C4F810B0012020702846BDE8F09F7A
:1087F000681C05B214340648B0F90000401C8542DC
:1088000001DC282DADDB4FF0FF30EFE7A81600208C
:10881000FC000020F800002010B500F001F810BDA9
:108820000CB50020019000903348006840F480307F
:108830003149086000BF3048006800F40030009003
:108840000198401C0190009818B90198B0F5A06FEC
:10885000F1D12948006800F4003010B101200090E7
:1088600001E0002000900098012843D123480068CF
:1088700040F01000214908600846006820F003001D
:1088800008600846006840F0020008601A48406826
:10889000194948600846406848600846406840F406
:1088A000806048600846406820F47C1048600846B4
:1088B000406840F4E81048600846006840F0807066
:1088C000086000BF0C48006800F000700028F9D074
:1088D0000948406820F0030007494860084640689E
:1088E00040F00200486000BF0348406800F00C0000
:1088F0000828F9D10CBD0000001002400020024001
:1089000070B50446002514480460006868B1134837
:10891000B0F90000401CF0B11048B0F90000FDF7BC
:10892000DFFC681E0D49088015E00C48B0F9000016
:10893000401C80B90A488089C0F3061505F164001F
:1089400000EB8000420049F6404306490020FFF753
:10895000FFFE0249088070BDD0000020DE0000202C
:10896000200B00207986000810B54FF48061024882
:10897000FDF70AFF10BD0000000C014010B54FF4D8
:1089800000610248FDF700FF10BD0000000C01402F
:1089900010B50A480068401C084908600849884228
:1089A00002D300200549086006480088401E00B236
:1089B00004490880FCF798F910BD0000640000200D
:1089C00040420F00A400002010B50C48B0F9000090
:1089D000401C40B10948B0F90000FDF781FC4FF0A0
:1089E000FF300649088040F6C4131A4604490020A7
:1089F000FFF7AEFE0149088010BD0000DA0000203C
:108A0000896B000810B51348006840F00100114957
:108A1000086008464068104908400E49486008460A
:108A200000680E4908400B4908600846006820F4B9
:108A3000802008600846406820F4FE0048604FF43B
:108A40001F008860FFF7E8FE4FF0006004490860EF
:108A500010BD0000001002400000FFF8FFFFF6FE0E
:108A600008ED00E00EB51548006842F21071B0FB49
:108A7000F1F0401E80B2ADF800000020ADF8020019
:108A800040F2E730ADF804000020ADF80600ADF884
:108A900002000B4800F05CF86946094800F06CF9E8
:108AA0000121074800F042F801220221044800F0A9
:108AB00057F90121024800F03FF80EBD40000020A8
:108AC0000008004010B50221114800F038F9F0B15B
:108AD00000210F4800F030F802210D4800F029F87D
:108AE0000B4800F029F90B49086000F0D7FA084854
:108AF00000F022F90849086008460068054909683D
:108B0000401A044908600121014800F015F810BD21
:108B1000000800406C0000206800002010B5FFF73E
:108B200027FBFEF7CCF8FFF79DFF10BDCA4302827A
:108B30007047CA430282704721B1028842F00102A5
:108B4000028004E002884FF6FE731A4002807047EC
:108B500010B504466848844208D10121C014FFF7CB
:108B6000F7FA0021E014FFF7F3FAC4E0B4F1804F04
:108B700008D101210846FFF7CBFA00210120FFF7B9
:108B8000C7FAB8E05D48844208D101210220FFF70E
:108B9000BFFA00210220FFF7BBFAACE0584884423C
:108BA00008D101210420FFF7B3FA00210420FFF7C8
:108BB000AFFAA0E05348844208D101210820FFF712
:108BC000A7FA00210820FFF7A3FA94E04E48844258
:108BD00008D101211020FFF79BFA00211020FFF798
:108BE00097FA88E04948844208D101212020FFF704
:108BF0008FFA00212020FFF78BFA7CE04448844262
:108C000008D101214014FFF7A3FA00216014FFF7F7
:108C10009FFA70E03F48844209D10121C804FFF760
:108C200097FA00214FF40020FFF792FA63E03A48E8
:108C3000844209D101210805FFF78AFA00214FF487
:108C40008010FFF785FA56E03448844209D10121AB
:108C50004805FFF77DFA00214FF40010FFF778FA7E
:108C600049E02F48844208D101214020FFF750FA03
:108C700000214020FFF74CFA3DE02A48844208D109
:108C800001218020FFF744FA00218020FFF740FAFD
:108C900031E02548844208D101218015FFF738FAD8
:108CA0000021A015FFF734FA25E02048844209D1BD
:108CB00001210804FFF74CFA00214FF48030FFF740
:108CC00047FA18E01A48844209D101214804FFF705
:108CD0003FFA00214FF40030FFF73AFA0BE0154855
:108CE000844208D101218804FFF732FA00214FF4B1
:108CF0008020FFF72DFA10BD002C01400004004039
:108D000000080040000C004000100040001400402B
:108D100000340140004C014000500140005401402B
:108D200000180040001C00400020004000400140AE
:108D300000440140004801400146888C704730B52E
:108D40000246002000230024158A05EA01039589C4
:108D500005EA010413B10CB1012000E0002030BD90
:108D60001AB183890B43838102E083898B4383811A
:108D70007047818570470000002202881D4B984291
:108D80000ED01D4B98420BD0B0F1804F08D01B4B3A
:108D9000984205D01A4B984202D01A4B984204D1FF
:108DA0004FF68F731A404B881A43174B984207D0DF
:108DB000164B984204D04FF6FF431A40CB881A4313
:108DC00002808B8883850B8803850A4B98420BD0E1
:108DD000094B984208D00E4B984205D00D4B984253
:108DE00002D00D4B984201D10B7A03860123838276
:108DF00070470000002C0140003401400004004096
:108E000000080040000C004000100040001400402A
:108E100000400140004401400048014010B51021CD
:108E20001348FDF7AFFC00F0E1F8012000F024F852
:108E300000F0DCF800F0DAF810210D48FDF7A4FC92
:108E400000F0D4F820210A48FDF78AFC0446012CE2
:108E500001D10849087010210548FDF793FC00F086
:108E6000C5F8002000F008F800F0C0F810BD0000C0
:108E7000000C01407800002038B504466CB9202071
:108E8000ADF8000010208DF8030003208DF80200DB
:108E900069460848FDF790FB0BE0012C09D1202022
:108EA000ADF8000048208DF8030069460148FDF741
:108EB00083FB38BD000C014010B520210B48FDF7A5
:108EC00063FC00F093F810210848FDF75DFC00F00A
:108ED0008DF820210548FDF755FC00F087F810219A
:108EE0000248FDF74FFC00F081F810BD000C014076
:108EF00010B510210B48FDF745FC00F077F8202154
:108F00000848FDF73FFC00F071F810210548FDF717
:108F10003BFC00F06BF820210248FDF735FC00F027
:108F200065F810BD000C014070B50446082500F03E
:108F30005DF81BE010210F48FDF724FC04F08000D1
:108F400020B120210B48FDF71FFC03E02021094838
:108F5000FDF718FC00F04AF810210648FDF714FC54
:108F60006006040E00F042F8681EC5B2002DE1DC78
:108F700070BD0000000C014070B5FFF79DFF802020
:108F8000FFF7D2FFFFF74AFF0C2444F0800420468D
:108F9000FFF7CAFFFFF742FF08480578008806126E
:108FA0002846FFF7C1FFFFF739FF3046FFF7BCFF48
:108FB000FFF734FFFFF79CFF70BD0000700000203A
:108FC00010B50446FFF778FF8020FFF7ADFFFFF7ED
:108FD00025FF8A20FFF7A8FFFFF720FF2046FFF7B5
:108FE000A3FFFFF71BFFFFF783FF10BD142000BF97
:108FF0000100A0F10102D0B2FAD1704710B50821EA
:109000002448FDF7C1FBFFF7F1FF08212148FDF7D8
:10901000B9FBFFF7EBFF08211E48FDF7B5FB002069
:109020001D490880FFF748FF8020FFF77DFFFFF70D
:10903000F5FE8020FFF778FFFFF7F0FE0020FFF736
:1090400073FFFFF7EBFE8020FFF76EFFFFF7E6FEF2
:10905000002406E0FF20FFF767FFFFF7DFFE601C3C
:10906000C4B2082CF6DB6420FFF75EFFFFF7D6FEE4
:109070000B20FFF759FFFFF7D1FE0020FFF754FF49
:10908000FFF7CCFE0020FFF74FFFFFF7C7FEFFF70B
:109090002FFF10BD000C0140700000203EB54FF6C0
:1090A000FF7002900020019000902D480068019907
:1090B000084400900020019000252A4C2BE02078E5
:1090C00000F0010020B3E0680099884216D82069BA
:1090D00010B9022020701BE020690199B1FBF0F269
:1090E00000FB12102169081AE06003202070E0687C
:1090F000029988420CD2E068029009E0E068009989
:10910000401AE060E0680299884201D2E06802906B
:10911000681C05B214341448B0F900008542CEDD55
:109120000F4902980860029801F0EAF800250D4CFA
:109130000FE0207800F0020040B1207820F002001B
:109140002070A06810B1D4E901018847681C05B2FD
:1091500014340548B0F900008542EADD3EBD000048
:10916000F8000020A8160020FC00002010B5012106
:109170000548FCF73BF9012805D1FCF729FC012142
:109180000148FCF70DF810BD0064004010B5022145
:109190001048FCF72BF901280BD004210D48FCF7EF
:1091A00025F9012805D008210A48FCF71FF90128F4
:1091B0000FD1094A00210748FCF766FA0648FCF778
:1091C000DBFA10B90448FCF72BFB02210148FBF73E
:1091D000E7FF10BD006400400C01002000BFFEE767
:1091E00002E008C8121F08C1002AFAD17047704770
:1091F000002001E001C1121F002AFBD170470000CE
:109200000248407A01490872704700005C02002061
:1092100070B50546334800EB0510006808B900BF7B
:10922000FEE7304800EB05142068804700283ED058
:109230002079032802DA0320207152E020790628E1
:1092400003DA2079401C20714BE0A07A38B9012064
:10925000A07205EB4501491CC8B200F03BF920891A
:1092600000283EDDE088218988420DDAE088401C34
:1092700080B2E0802189884233D105EB4501C91CC9
:10928000C8B200F027F92CE0E07A002829DD207B25
:10929000401CC0B22073E17A884222DB0020207398
:1092A00005EB4501491CC8B200F014F919E020791A
:1092B000032802DD0320207110E0207918B1207905
:1092C000401E20710AE0A07A012807D10020A07278
:1092D00005EB4501891CC8B200F0FCF80020E080D5
:1092E000207370BD2C0200200B48007A0A4A527A83
:1092F000904201D1002070470748007A064A115C6D
:109300001046007A401CC0B21072082801DB002011
:1093100010720846EFE700005C02002010B5FAF773
:1093200047FFFAF793FF002006490870002406E083
:1093300040F6FF70044921F81400601CC4B20A2CE6
:10934000F6DB10BD8C0000207402002008B501215E
:109350000520FEF7EDFE1848406820F02000164971
:10936000486001211548FDF7B3F90120FDF7F0FD34
:109370000020FEF703FF0020FBF76EF90020FDF749
:10938000E7FD03208DF8020004208DF80300ADF8FE
:10939000000069460A48FDF70FF90820ADF8000003
:1093A00069460748FDF708F91020ADF80000694646
:1093B0000348FDF701F908BD002004E00002300079
:1093C000000801400021144A11725172917200206C
:1093D00018E05021114A02EB0012118101210F4ABD
:1093E00002EB0012117100210C4A02EB0012917283
:1093F0000A4A02EB0012D172084A02EB0012117302
:10940000411CC8B20328E4DB0549044A1160054940
:1094100011610549116270475C0200202C02002096
:10942000FD680008156900082D69000838B501219C
:109430000820FEF77DFE10208DF8030003208DF834
:1094400002004FF48040ADF8000069461448FDF773
:10945000B3F8002420E00020124901F8340001EBA9
:10946000C40148700F4901EBC40188700D4901EB3C
:10947000C401C8700B4901EBC4010871094901EB33
:10948000C4014871074901EBC4018871611CC8B26D
:1094900000F016F8601CC4B2012CDCDB38BD000003
:1094A000000C01409C00002010B5002404E0204680
:1094B000FFF7AEFE601CC4B2032CF8DB10BD000049
:1094C000411EC8B218B94FF48041014A116070477B
:1094D000140C01400649497A054A50541146497A0C
:1094E000491CC9B25172082901DB00215172704731
:1094F0005C02002010B50446034804700348047160
:109500000220FCF745FE10BD7C0000204401002035
:1095100010B5044654B90C480078022802D1FF2047
:109520000A4988700949887800F02CF806480470C8
:10953000022C08D00648C078A04204D00448C47069
:109540000220FCF725FE10BD7D00002088000020D1
:109550004401002010B5044607480470074800780D
:1095600038B90748847000F089F80220FCF710FE33
:1095700001E000F04BF810BD7700002076000020DD
:109580004401002010B504462046FFF719FD0148AC
:10959000047010BD7200002010B504462046FFF78D
:1095A0000FFD04480470044844710220FCF7F0FDEC
:1095B00010BD0000720000204401002010B50828F2
:1095C00015DB0C2801D00D2800D110BD00210BE0C7
:1095D000032201EB41030C4C23445A70012201EB9E
:1095E0004103E2544A1CD1B20829F1DB09E0082208
:1095F00000EB4003044C23445A70012200EB40036B
:10960000E25400BFE1E700002001002010B5164839
:10961000B0F90000401C40B11348B0F90000FCF75D
:109620005FFE4FF0FF301049088000240BE00F2050
:1096300004EB44010D4A11444870012004EB44013D
:109640005054601CC4B2082CF1DB0120084908709A
:1096500042F210734FF49662064907480078FFF70C
:1096600077F80149088010BD740000202001002017
:1096700076000020F19600087700002010B517480A
:10968000B0F90000401C40B11448B0F90000FCF7EC
:1096900027FE4FF0FF30114908801148007888B14B
:1096A00000240AE0002004EB44010E4A11444870F3
:1096B00004EB44015054601CC4B2082CF2DB0020BF
:1096C000074908704FF496631A460749074800781F
:1096D000FFF73EF80149088010BD0000740000202B
:1096E0007600002020010020F1960008770000207D
:1096F00070B505466248007838BB62490878C117E2
:1097000000EB91718910A0EB8101012904DC4FF677
:10971000FF705D49088002E000205B4908805948DD
:109720000078401C57490870FFF726FC022000F023
:109730006FF956480078FFF743FC524800780C2830
:1097400002DB01204E49087070BD514800780028A6
:1097500069D1002458E004EB44004E4908444078A5
:10976000002822DD04EB4400085C01281DD145B926
:10977000494830F8140044490988084342490880A0
:1097800007E0464830F814003F49098808403E4940
:10979000088004EB44003F4908444078401E04EB35
:1097A00044013C4A114448702CE0002608E006EBD6
:1097B00046003849085C012800D103E0701CC6B29D
:1097C000082EF4DB00BF082E05D13548C07810B94B
:1097D0000020FFF79DFE002004EB44012D4A505469
:1097E00045B92E4830F81400274909880840264911
:1097F000088007E0284830F8140023490988084306
:1098000021490880601CC4B2082CA4DBFFF7B4FB1C
:10981000022000F0FDF81D480078FFF7D1FB012081
:109820001B4908701DE01F480078012804D1194821
:10983000407808B9FFF722FF1DB9002012490880BF
:1098400003E04FF6FF7010490880FFF795FB0220F8
:1098500000F0DEF80D480078FFF7B2FB00200C495D
:10986000087011480078012807D1022000F0D0F8D4
:10987000FFF7C4FB00200C49087000BF64E700003C
:109880007A0000207B000020700000207200002081
:1098900079000020200100202CA300083CA3000830
:1098A00044010020760000207800002070B50446B6
:1098B000256905EB4505094E06EB4505AB1C2569F9
:1098C00005EB450506EB45056A78256905EB450579
:1098D00016F81510207CFEF72DFB70BD080C00203B
:1098E00030B587B0044600200190257C40F223105B
:1098F000ADF8100000208DF808008DF809006078A0
:1099000050B101208DF8090005EB0511154800EB59
:1099100081004068059008E000208DF80900124899
:10992000C06805F00F01084305900220ADF8120051
:10993000206900EB00110B4800EB81004088001209
:109940008DF80400206900EB0011064800EB81004F
:1099500080788DF8040001A8039002A8FEF774F93E
:1099600007B030BD380B0020200B002010B5234A73
:1099700091881068FAF7FFFBAA2021490870FDF7CB
:109980006DF908211E48401CFCF71AFF044600EB45
:10999000D47040104FF4FE6101EA00101849C8600D
:1099A000032008740020FCF70FFCFCF7F9F80120F5
:1099B000FCF70AFC114A118D506AFAF7DCFBAA2069
:1099C000104908700320FCF7FFFB0C4A918B90694B
:1099D000FAF7D1FBAA200C490870012048700871E1
:1099E0000020C87001208870FF2048710220FCF719
:1099F000EBFB72B60548FCF7A5FF10BD0400002084
:109A0000200B0020320C0020440100200040000800
:109A100030B50446002504E04FF47A7000F004F8F5
:109A20006D1CA542F8D330BD10B5084B1B68084C1F
:109A3000B3FBF4F30924B3FBF4F2002100E0491C6A
:109A400002FB00F38B42FAD810BD0000400000205A
:109A500040420F00F0B587B0044600200190267CFC
:109A60006089032801DA07B0F0BD6768BB1C7A780B
:109A70003978207CFDF704FC054640F21510ADF85E
:109A8000100000208DF808008DF80900607850B1B2
:109A900001208DF8090006EB06110F4800EB81004C
:109AA0004068059008E000208DF809000B48C06868
:109AB00006F00F01084305900220ADF8120060681F
:109AC00000788DF804008DF8055001A8039002A8D5
:109AD000FEF7BAF800BFC6E7380B0020200B0020C5
